{
  "contractName": "IDOFactory",
  "abi": [
    {
      "inputs": [
        {
          "internalType": "contract ERC20Burnable",
          "name": "_feeToken",
          "type": "address"
        },
        {
          "internalType": "uint256",
          "name": "_feeAmount",
          "type": "uint256"
        },
        {
          "internalType": "uint256",
          "name": "_burnPercent",
          "type": "uint256"
        }
      ],
      "stateMutability": "nonpayable",
      "type": "constructor"
    },
    {
      "anonymous": false,
      "inputs": [
        {
          "indexed": false,
          "internalType": "uint256",
          "name": "newBurnPercent",
          "type": "uint256"
        },
        {
          "indexed": false,
          "internalType": "uint256",
          "name": "divider",
          "type": "uint256"
        }
      ],
      "name": "BurnPercentUpdated",
      "type": "event"
    },
    {
      "anonymous": false,
      "inputs": [
        {
          "indexed": false,
          "internalType": "uint256",
          "name": "newFeeAmount",
          "type": "uint256"
        }
      ],
      "name": "FeeAmountUpdated",
      "type": "event"
    },
    {
      "anonymous": false,
      "inputs": [
        {
          "indexed": false,
          "internalType": "address",
          "name": "newFeeWallet",
          "type": "address"
        }
      ],
      "name": "FeeWalletUpdated",
      "type": "event"
    },
    {
      "anonymous": false,
      "inputs": [
        {
          "indexed": true,
          "internalType": "address",
          "name": "owner",
          "type": "address"
        },
        {
          "indexed": false,
          "internalType": "address",
          "name": "idoPool",
          "type": "address"
        },
        {
          "indexed": true,
          "internalType": "address",
          "name": "rewardToken",
          "type": "address"
        },
        {
          "indexed": false,
          "internalType": "string",
          "name": "tokenURI",
          "type": "string"
        }
      ],
      "name": "IDOCreated",
      "type": "event"
    },
    {
      "anonymous": false,
      "inputs": [
        {
          "indexed": true,
          "internalType": "address",
          "name": "previousOwner",
          "type": "address"
        },
        {
          "indexed": true,
          "internalType": "address",
          "name": "newOwner",
          "type": "address"
        }
      ],
      "name": "OwnershipTransferred",
      "type": "event"
    },
    {
      "anonymous": false,
      "inputs": [
        {
          "indexed": false,
          "internalType": "address",
          "name": "newFeeToken",
          "type": "address"
        }
      ],
      "name": "TokenFeeUpdated",
      "type": "event"
    },
    {
      "inputs": [],
      "name": "burnPercent",
      "outputs": [
        {
          "internalType": "uint256",
          "name": "",
          "type": "uint256"
        }
      ],
      "stateMutability": "view",
      "type": "function"
    },
    {
      "inputs": [],
      "name": "divider",
      "outputs": [
        {
          "internalType": "uint256",
          "name": "",
          "type": "uint256"
        }
      ],
      "stateMutability": "view",
      "type": "function"
    },
    {
      "inputs": [],
      "name": "feeAmount",
      "outputs": [
        {
          "internalType": "uint256",
          "name": "",
          "type": "uint256"
        }
      ],
      "stateMutability": "view",
      "type": "function"
    },
    {
      "inputs": [],
      "name": "feeToken",
      "outputs": [
        {
          "internalType": "contract ERC20Burnable",
          "name": "",
          "type": "address"
        }
      ],
      "stateMutability": "view",
      "type": "function"
    },
    {
      "inputs": [],
      "name": "feeWallet",
      "outputs": [
        {
          "internalType": "address",
          "name": "",
          "type": "address"
        }
      ],
      "stateMutability": "view",
      "type": "function"
    },
    {
      "inputs": [],
      "name": "owner",
      "outputs": [
        {
          "internalType": "address",
          "name": "",
          "type": "address"
        }
      ],
      "stateMutability": "view",
      "type": "function"
    },
    {
      "inputs": [],
      "name": "renounceOwnership",
      "outputs": [],
      "stateMutability": "nonpayable",
      "type": "function"
    },
    {
      "inputs": [
        {
          "internalType": "address",
          "name": "newOwner",
          "type": "address"
        }
      ],
      "name": "transferOwnership",
      "outputs": [],
      "stateMutability": "nonpayable",
      "type": "function"
    },
    {
      "inputs": [
        {
          "internalType": "address",
          "name": "_newFeeToken",
          "type": "address"
        }
      ],
      "name": "setFeeToken",
      "outputs": [],
      "stateMutability": "nonpayable",
      "type": "function"
    },
    {
      "inputs": [
        {
          "internalType": "uint256",
          "name": "_newFeeAmount",
          "type": "uint256"
        }
      ],
      "name": "setFeeAmount",
      "outputs": [],
      "stateMutability": "nonpayable",
      "type": "function"
    },
    {
      "inputs": [
        {
          "internalType": "address",
          "name": "_newFeeWallet",
          "type": "address"
        }
      ],
      "name": "setFeeWallet",
      "outputs": [],
      "stateMutability": "nonpayable",
      "type": "function"
    },
    {
      "inputs": [
        {
          "internalType": "uint256",
          "name": "_newBurnPercent",
          "type": "uint256"
        },
        {
          "internalType": "uint256",
          "name": "_newDivider",
          "type": "uint256"
        }
      ],
      "name": "setBurnPercent",
      "outputs": [],
      "stateMutability": "nonpayable",
      "type": "function"
    },
    {
      "inputs": [
        {
          "internalType": "contract ERC20",
          "name": "_rewardToken",
          "type": "address"
        },
        {
          "components": [
            {
              "internalType": "uint256",
              "name": "tokenPrice",
              "type": "uint256"
            },
            {
              "internalType": "uint256",
              "name": "softCap",
              "type": "uint256"
            },
            {
              "internalType": "uint256",
              "name": "hardCap",
              "type": "uint256"
            },
            {
              "internalType": "uint256",
              "name": "minEthPayment",
              "type": "uint256"
            },
            {
              "internalType": "uint256",
              "name": "maxEthPayment",
              "type": "uint256"
            },
            {
              "internalType": "uint256",
              "name": "listingPrice",
              "type": "uint256"
            },
            {
              "internalType": "uint256",
              "name": "lpInterestRate",
              "type": "uint256"
            }
          ],
          "internalType": "struct IDOPool.FinInfo",
          "name": "_finInfo",
          "type": "tuple"
        },
        {
          "components": [
            {
              "internalType": "uint256",
              "name": "startTimestamp",
              "type": "uint256"
            },
            {
              "internalType": "uint256",
              "name": "endTimestamp",
              "type": "uint256"
            },
            {
              "internalType": "uint256",
              "name": "unlockTimestamp",
              "type": "uint256"
            }
          ],
          "internalType": "struct IDOPool.Timestamps",
          "name": "_timestamps",
          "type": "tuple"
        },
        {
          "components": [
            {
              "internalType": "address",
              "name": "router",
              "type": "address"
            },
            {
              "internalType": "address",
              "name": "factory",
              "type": "address"
            },
            {
              "internalType": "address",
              "name": "weth",
              "type": "address"
            }
          ],
          "internalType": "struct IDOPool.DEXInfo",
          "name": "_dexInfo",
          "type": "tuple"
        },
        {
          "internalType": "address",
          "name": "_lockerFactoryAddress",
          "type": "address"
        },
        {
          "internalType": "string",
          "name": "_metadataURL",
          "type": "string"
        }
      ],
      "name": "createIDO",
      "outputs": [],
      "stateMutability": "nonpayable",
      "type": "function"
    }
  ],
  "bytecode": "0x608060405234801561000f575f80fd5b506040516200459f3803806200459f833981016040819052610030916100b9565b6100393361006a565b600180546001600160a01b0319166001600160a01b03949094169390931790925560035560045560646005556100f8565b5f80546001600160a01b038381166001600160a01b0319831681178455604051919092169283917f8be0079c531659141344cd1fd0a4f28419497f9722a3daafe3b4186f6b6457e09190a35050565b5f805f606084860312156100cb575f80fd5b83516001600160a01b03811681146100e1575f80fd5b602085015160409095015190969495509392505050565b61449980620001065f395ff3fe608060405234801562000010575f80fd5b5060043610620000ec575f3560e01c80636b39268011620000935780638dc12991116200006b5780638dc1299114620001d757806390d49b9d14620001ee578063f25f4b561462000205578063f2fde38b1462000226575f80fd5b80636b3926801462000198578063715018a614620001af5780638da5cb5b14620001b9575f80fd5b8063378efa3711620000c7578063378efa37146200013d578063647846a5146200014757806369e15404146200018e575f80fd5b806303807ee514620000f057806315cce224146200010d57806337491a911462000126575b5f80fd5b620000fa60045481565b6040519081526020015b60405180910390f35b620001246200011e36600462000e01565b6200023d565b005b620001246200013736600462000feb565b62000335565b620000fa60055481565b600154620001689073ffffffffffffffffffffffffffffffffffffffff1681565b60405173ffffffffffffffffffffffffffffffffffffffff909116815260200162000104565b620000fa60035481565b62000124620001a9366004620010ff565b620006c7565b6200012462000707565b5f5473ffffffffffffffffffffffffffffffffffffffff1662000168565b62000124620001e836600462001117565b6200071e565b62000124620001ff36600462000e01565b62000801565b600254620001689073ffffffffffffffffffffffffffffffffffffffff1681565b620001246200023736600462000e01565b6200087f565b620002476200093c565b803b63ffffffff16620002bb576040517f08c379a000000000000000000000000000000000000000000000000000000000815260206004820152601a60248201527f4e65772061646472657373206973206e6f74206120746f6b656e00000000000060448201526064015b60405180910390fd5b600180547fffffffffffffffffffffffff00000000000000000000000000000000000000001673ffffffffffffffffffffffffffffffffffffffff83169081179091556040519081527f9e892f555b0a5cac6c8cc33c82ebb9308207bd16dfdca9d0289b96d7e4186c8a906020015b60405180910390a150565b5f8686868686866040516200034a9062000dbf565b6200035b96959493929190620011a7565b604051809103905ff08015801562000375573d5f803e3d5ffd5b5090505f8773ffffffffffffffffffffffffffffffffffffffff1663313ce5676040518163ffffffff1660e01b8152600401602060405180830381865afa158015620003c3573d5f803e3d5ffd5b505050506040513d601f19601f82011682018060405250810190620003e99190620012a2565b90505f620004008860400151895f015184620009be565b90505f8860c001511180156200041957505f8860a00151115b1562000462576200045360648960c001518a604001516200043b9190620012f1565b6200044791906200130b565b8960a0015184620009be565b6200045f908262001344565b90505b6040517ff2fde38b00000000000000000000000000000000000000000000000000000000815233600482015273ffffffffffffffffffffffffffffffffffffffff84169063f2fde38b906024015f604051808303815f87803b158015620004c7575f80fd5b505af1158015620004da573d5f803e3d5ffd5b50620005039250505073ffffffffffffffffffffffffffffffffffffffff8a16338584620009ec565b8873ffffffffffffffffffffffffffffffffffffffff163373ffffffffffffffffffffffffffffffffffffffff167ff71c11ab5bd622b01d634c5c9e59846d77ee252871f11645b7b8376ddd4dd3e28587604051620005649291906200135a565b60405180910390a360035415620006bc576004541562000689575f620005a66005546200059f60045460035462000a8990919063ffffffff16565b9062000a9f565b600254600354919250620005fb91339173ffffffffffffffffffffffffffffffffffffffff1690620005d9908562000aac565b60015473ffffffffffffffffffffffffffffffffffffffff16929190620009ec565b6001546040517f79cc67900000000000000000000000000000000000000000000000000000000081523360048201526024810183905273ffffffffffffffffffffffffffffffffffffffff909116906379cc6790906044015f604051808303815f87803b1580156200066b575f80fd5b505af11580156200067e573d5f803e3d5ffd5b5050505050620006bc565b600254600354600154620006bc9273ffffffffffffffffffffffffffffffffffffffff91821692339290911690620009ec565b505050505050505050565b620006d16200093c565b60038190556040518181527fbb128cd9921d003aff00ed910fe24b1655b2bf1f4a2090cc3523f61bdc172316906020016200032a565b620007116200093c565b6200071c5f62000ab9565b565b620007286200093c565b80821115620007ba576040517f08c379a000000000000000000000000000000000000000000000000000000000815260206004820152602660248201527f4275726e2070657263656e74206d757374206265206c657373207468616e206460448201527f69766964657200000000000000000000000000000000000000000000000000006064820152608401620002b2565b6004829055600581905560408051838152602081018390527fb62d69c6ddf4f4bd443dca17ea7405d8018efb872e82e77bb8ef13b5be2f2e9c910160405180910390a15050565b6200080b6200093c565b600280547fffffffffffffffffffffffff00000000000000000000000000000000000000001673ffffffffffffffffffffffffffffffffffffffff83169081179091556040519081527f29acee77dafcfa0143d74a7ea236018f3a6e1fa71e27fc59bbfbc6b8ca8edccd906020016200032a565b620008896200093c565b73ffffffffffffffffffffffffffffffffffffffff81166200092e576040517f08c379a000000000000000000000000000000000000000000000000000000000815260206004820152602660248201527f4f776e61626c653a206e6577206f776e657220697320746865207a65726f206160448201527f64647265737300000000000000000000000000000000000000000000000000006064820152608401620002b2565b620009398162000ab9565b50565b5f5473ffffffffffffffffffffffffffffffffffffffff1633146200071c576040517f08c379a000000000000000000000000000000000000000000000000000000000815260206004820181905260248201527f4f776e61626c653a2063616c6c6572206973206e6f7420746865206f776e65726044820152606401620002b2565b5f620009cc82600a620014c1565b620009d884866200130b565b620009e49190620012f1565b949350505050565b6040805173ffffffffffffffffffffffffffffffffffffffff85811660248301528416604482015260648082018490528251808303909101815260849091019091526020810180517bffffffffffffffffffffffffffffffffffffffffffffffffffffffff167f23b872dd0000000000000000000000000000000000000000000000000000000017905262000a8390859062000b2d565b50505050565b5f62000a968284620012f1565b90505b92915050565b5f62000a9682846200130b565b5f62000a968284620014d1565b5f805473ffffffffffffffffffffffffffffffffffffffff8381167fffffffffffffffffffffffff0000000000000000000000000000000000000000831681178455604051919092169283917f8be0079c531659141344cd1fd0a4f28419497f9722a3daafe3b4186f6b6457e09190a35050565b5f62000b90826040518060400160405280602081526020017f5361666545524332303a206c6f772d6c6576656c2063616c6c206661696c65648152508573ffffffffffffffffffffffffffffffffffffffff1662000c449092919063ffffffff16565b80519091501562000c3f578080602001905181019062000bb19190620014e7565b62000c3f576040517f08c379a000000000000000000000000000000000000000000000000000000000815260206004820152602a60248201527f5361666545524332303a204552433230206f7065726174696f6e20646964206e60448201527f6f742073756363656564000000000000000000000000000000000000000000006064820152608401620002b2565b505050565b6060620009e484845f85855f808673ffffffffffffffffffffffffffffffffffffffff16858760405162000c79919062001508565b5f6040518083038185875af1925050503d805f811462000cb5576040519150601f19603f3d011682016040523d82523d5f602084013e62000cba565b606091505b509150915062000ccd8783838762000cd8565b979650505050505050565b6060831562000d725782515f0362000d6a5773ffffffffffffffffffffffffffffffffffffffff85163b62000d6a576040517f08c379a000000000000000000000000000000000000000000000000000000000815260206004820152601d60248201527f416464726573733a2063616c6c20746f206e6f6e2d636f6e74726163740000006044820152606401620002b2565b5081620009e4565b620009e4838381511562000d895781518083602001fd5b806040517f08c379a0000000000000000000000000000000000000000000000000000000008152600401620002b2919062001525565b612f2a806200153a83390190565b73ffffffffffffffffffffffffffffffffffffffff8116811462000939575f80fd5b803562000dfc8162000dcd565b919050565b5f6020828403121562000e12575f80fd5b813562000e1f8162000dcd565b9392505050565b7f4e487b71000000000000000000000000000000000000000000000000000000005f52604160045260245ffd5b6040516060810167ffffffffffffffff8111828210171562000e795762000e7962000e26565b60405290565b60405160e0810167ffffffffffffffff8111828210171562000e795762000e7962000e26565b5f6060828403121562000eb6575f80fd5b62000ec062000e53565b905081358152602082013560208201526040820135604082015292915050565b5f6060828403121562000ef1575f80fd5b62000efb62000e53565b9050813562000f0a8162000dcd565b8152602082013562000f1c8162000dcd565b6020820152604082013562000f318162000dcd565b604082015292915050565b5f82601f83011262000f4c575f80fd5b813567ffffffffffffffff8082111562000f6a5762000f6a62000e26565b604051601f83017fffffffffffffffffffffffffffffffffffffffffffffffffffffffffffffffe0908116603f0116810190828211818310171562000fb35762000fb362000e26565b8160405283815286602085880101111562000fcc575f80fd5b836020870160208301375f602085830101528094505050505092915050565b5f805f805f8086880361020081121562001003575f80fd5b8735620010108162000dcd565b965060e07fffffffffffffffffffffffffffffffffffffffffffffffffffffffffffffffe08201121562001042575f80fd5b506200104d62000e7f565b6020880135815260408801356020820152606088013560408201526080880135606082015260a0880135608082015260c088013560a082015260e088013560c082015280955050620010a488610100890162000ea5565b9350620010b688610160890162000ee0565b9250620010c76101c0880162000def565b91506101e087013567ffffffffffffffff811115620010e4575f80fd5b620010f289828a0162000f3c565b9150509295509295509295565b5f6020828403121562001110575f80fd5b5035919050565b5f806040838503121562001129575f80fd5b50508035926020909101359150565b5f5b83811015620011545781810151838201526020016200113a565b50505f910152565b5f81518084526200117581602086016020860162001138565b601f017fffffffffffffffffffffffffffffffffffffffffffffffffffffffffffffffe0169290920160200192915050565b5f61020073ffffffffffffffffffffffffffffffffffffffff8916835287516020840152602088015160408401526040880151606084015260608801516080840152608088015160a084015260a088015160c084015260c088015160e08401526200122a6101008401888051825260208082015190830152604090810151910152565b855173ffffffffffffffffffffffffffffffffffffffff908116610160850152602087015181166101808501526040870151166101a084015273ffffffffffffffffffffffffffffffffffffffff85166101c0840152806101e084015262001295818401856200115c565b9998505050505050505050565b5f60208284031215620012b3575f80fd5b815160ff8116811462000e1f575f80fd5b7f4e487b71000000000000000000000000000000000000000000000000000000005f52601160045260245ffd5b808202811582820484141762000a995762000a99620012c4565b5f826200133f577f4e487b71000000000000000000000000000000000000000000000000000000005f52601260045260245ffd5b500490565b8082018082111562000a995762000a99620012c4565b73ffffffffffffffffffffffffffffffffffffffff83168152604060208201525f620009e460408301846200115c565b600181815b80851115620013e957817fffffffffffffffffffffffffffffffffffffffffffffffffffffffffffffffff04821115620013cd57620013cd620012c4565b80851615620013db57918102915b93841c93908002906200138f565b509250929050565b5f82620014015750600162000a99565b816200140f57505f62000a99565b8160018114620014285760028114620014335762001453565b600191505062000a99565b60ff841115620014475762001447620012c4565b50506001821b62000a99565b5060208310610133831016604e8410600b841016171562001478575081810a62000a99565b6200148483836200138a565b807fffffffffffffffffffffffffffffffffffffffffffffffffffffffffffffffff04821115620014b957620014b9620012c4565b029392505050565b5f62000a9660ff841683620013f1565b8181038181111562000a995762000a99620012c4565b5f60208284031215620014f8575f80fd5b8151801515811462000e1f575f80fd5b5f82516200151b81846020870162001138565b9190910192915050565b602081525f62000a9660208301846200115c56fe60806040526016805460ff191690553480156200001a575f80fd5b5060405162002f2a38038062002f2a8339810160408190526200003d91620004c4565b62000048336200018a565b60018055600280546001600160a01b0319166001600160a01b0388169081179091556040805163313ce56760e01b8152905163313ce567916004808201926020929091908290030181865afa158015620000a4573d5f803e3d5ffd5b505050506040513d601f19601f82011682018060405250810190620000ca9190620005ba565b60ff16600355601280546001600160a01b0319166001600160a01b0384161790558451600555602085015160065560408501516007556060850151600855608085015160095560a0850151600a5560c0850151600b556200012b84620001d9565b8251600f80546001600160a01b039283166001600160a01b0319918216179091556020850151601080549184169183169190911790556040850151601180549190931691161790556200017e81620002d2565b50505050505062000739565b5f80546001600160a01b038381166001600160a01b0319831681178455604051919092169283917f8be0079c531659141344cd1fd0a4f28419497f9722a3daafe3b4186f6b6457e09190a35050565b60208101518151106200024e5760405162461bcd60e51b815260206004820152603260248201527f53746172742074696d657374616d70206d757374206265206c6573732074686160448201527106e2066696e6973682074696d657374616d760741b60648201526084015b60405180910390fd5b42816020015111620002bc5760405162461bcd60e51b815260206004820152603060248201527f46696e6973682074696d657374616d70206d757374206265206d6f726520746860448201526f616e2063757272656e7420626c6f636b60801b606482015260840162000245565b8051600c556020810151600d5560400151600e55565b6004620002e082826200066d565b5050565b6001600160a01b0381168114620002f9575f80fd5b50565b634e487b7160e01b5f52604160045260245ffd5b604051606081016001600160401b0381118282101715620003355762000335620002fc565b60405290565b60405160e081016001600160401b0381118282101715620003355762000335620002fc565b604051601f8201601f191681016001600160401b03811182821017156200038b576200038b620002fc565b604052919050565b5f60608284031215620003a4575f80fd5b620003ae62000310565b905081518152602082015160208201526040820151604082015292915050565b8051620003db81620002e4565b919050565b5f60608284031215620003f1575f80fd5b620003fb62000310565b905081516200040a81620002e4565b815260208201516200041c81620002e4565b602082015260408201516200043181620002e4565b604082015292915050565b5f82601f8301126200044c575f80fd5b81516001600160401b03811115620004685762000468620002fc565b60206200047e601f8301601f1916820162000360565b828152858284870101111562000492575f80fd5b5f5b83811015620004b157858101830151828201840152820162000494565b505f928101909101919091529392505050565b5f805f805f80868803610200811215620004dc575f80fd5b8751620004e981620002e4565b965060e0601f1982011215620004fd575f80fd5b50620005086200033b565b6020880151815260408801516020820152606088015160408201526080880151606082015260a0880151608082015260c088015160a082015260e088015160c0820152809550506200055f88610100890162000393565b935062000571886101608901620003e0565b9250620005826101c08801620003ce565b6101e08801519092506001600160401b038111156200059f575f80fd5b620005ad89828a016200043c565b9150509295509295509295565b5f60208284031215620005cb575f80fd5b815160ff81168114620005dc575f80fd5b9392505050565b600181811c90821680620005f857607f821691505b6020821081036200061757634e487b7160e01b5f52602260045260245ffd5b50919050565b601f8211156200066857805f5260205f20601f840160051c81016020851015620006445750805b601f840160051c820191505b8181101562000665575f815560010162000650565b50505b505050565b81516001600160401b03811115620006895762000689620002fc565b620006a1816200069a8454620005e3565b846200061d565b602080601f831160018114620006d7575f8415620006bf5750858301515b5f19600386901b1c1916600185901b17855562000731565b5f85815260208120601f198616915b828110156200070757888601518255948401946001909101908401620006e6565b50858210156200072557878501515f19600388901b60f8161c191681555b505060018460011b0185555b505050505050565b6127e380620007475f395ff3fe60806040526004361061018e575f3560e01c806362bea93f116100dc578063d8d2a56d11610087578063f2fde38b11610062578063f2fde38b146104ac578063f7c618c1146104cb578063f84b903e146104f7578063fd46a17114610520575f80fd5b8063d8d2a56d14610415578063ddeae03314610485578063e086e5ec146104a4575f80fd5b8063747daec5116100b7578063747daec5146103b95780638da5cb5b146103d8578063c6a0e27d14610401575f80fd5b806362bea93f1461037d5780637100750914610391578063715018a6146103a5575f80fd5b80633f138d4b1161013c5780634e71d92d116101175780634e71d92d14610340578063586360ce14610354578063590e1ae314610369575f80fd5b80633f138d4b146102ee578063491447a81461030d5780634b1a4c0c1461032b575f80fd5b80632a123b161161016c5780632a123b16146102595780632dcc8c66146102aa578063313ce567146102cb575f80fd5b806312d3675e146101925780631959a002146101fa5780631b9265b81461024f575b5f80fd5b34801561019d575f80fd5b50600554600654600754600854600954600a54600b546101c09695949392919087565b604080519788526020880196909652948601939093526060850191909152608084015260a083015260c082015260e0015b60405180910390f35b348015610205575f80fd5b50610234610214366004612092565b60176020525f908152604090208054600182015460029092015490919083565b604080519384526020840192909252908201526060016101f1565b610257610535565b005b348015610264575f80fd5b506012546102859073ffffffffffffffffffffffffffffffffffffffff1681565b60405173ffffffffffffffffffffffffffffffffffffffff90911681526020016101f1565b3480156102b5575f80fd5b506102be610890565b6040516101f1919061211f565b3480156102d6575f80fd5b506102e060035481565b6040519081526020016101f1565b3480156102f9575f80fd5b50610257610308366004612131565b61091c565b348015610318575f80fd5b50600c54600d54600e5461023492919083565b348015610336575f80fd5b506102e060145481565b34801561034b575f80fd5b50610257610970565b34801561035f575f80fd5b506102e060155481565b348015610374575f80fd5b5061025761097b565b348015610388575f80fd5b506102e0610b91565b34801561039c575f80fd5b50610257610c4e565b3480156103b0575f80fd5b50610257610e76565b3480156103c4575f80fd5b506102576103d336600461221c565b610e87565b3480156103e3575f80fd5b505f5473ffffffffffffffffffffffffffffffffffffffff16610285565b34801561040c575f80fd5b50610257610e93565b348015610420575f80fd5b50600f5460105460115461044e9273ffffffffffffffffffffffffffffffffffffffff908116928116911683565b6040805173ffffffffffffffffffffffffffffffffffffffff948516815292841660208401529216918101919091526060016101f1565b348015610490575f80fd5b5061025761049f366004612092565b610fc7565b610257610fd0565b3480156104b7575f80fd5b506102576104c6366004612092565b61184d565b3480156104d6575f80fd5b506002546102859073ffffffffffffffffffffffffffffffffffffffff1681565b348015610502575f80fd5b506016546105109060ff1681565b60405190151581526020016101f1565b34801561052b575f80fd5b506102e060135481565b600c544210156105a6576040517f08c379a000000000000000000000000000000000000000000000000000000000815260206004820152600b60248201527f4e6f74207374617274656400000000000000000000000000000000000000000060448201526064015b60405180910390fd5b600d544210610611576040517f08c379a000000000000000000000000000000000000000000000000000000000815260206004820152600560248201527f456e646564000000000000000000000000000000000000000000000000000000604482015260640161059d565b60085434101561067d576040517f08c379a000000000000000000000000000000000000000000000000000000000815260206004820152601460248201527f4c657373207468656e206d696e20616d6f756e74000000000000000000000000604482015260640161059d565b6009543411156106e9576040517f08c379a000000000000000000000000000000000000000000000000000000000815260206004820152601460248201527f4d6f7265207468656e206d617820616d6f756e74000000000000000000000000604482015260640161059d565b6007546013546106f99034611901565b1115610761576040517f08c379a000000000000000000000000000000000000000000000000000000000815260206004820152600a60248201527f4f76657266696c6c656400000000000000000000000000000000000000000000604482015260640161059d565b335f90815260176020526040902060095460028201546107819034611901565b11156107e9576040517f08c379a000000000000000000000000000000000000000000000000000000000815260206004820152601460248201527f4d6f7265207468656e206d617820616d6f756e74000000000000000000000000604482015260640161059d565b5f6107f83460055f0154611915565b6013549091506108089034611901565b6013556014546108189082611901565b601455600282015461082a9034611901565b6002830155600182015461083e9082611901565b6001830155815461084f9082611901565b8255604080513481526020810183905233917fb55d4ca2fc644ca3f8cdc9c907826e24acd68d2b2d4d73f48b8f2378dbaedf5d910160405180910390a25050565b6004805461089d90612296565b80601f01602080910402602001604051908101604052809291908181526020018280546108c990612296565b80156109145780601f106108eb57610100808354040283529160200191610914565b820191905f5260205f20905b8154815290600101906020018083116108f757829003601f168201915b505050505081565b610924611939565b60025473ffffffffffffffffffffffffffffffffffffffff9081169083160361094b575f80fd5b61096c73ffffffffffffffffffffffffffffffffffffffff831633836119b9565b5050565b61097933611a46565b565b600d5442116109e6576040517f08c379a000000000000000000000000000000000000000000000000000000000815260206004820152601b60248201527f5468652049444f20706f6f6c20686173206e6f7420656e6465642e0000000000604482015260640161059d565b60065460135410610a53576040517f08c379a000000000000000000000000000000000000000000000000000000000815260206004820181905260248201527f5468652049444f20706f6f6c2068617320726561636820736f6674206361702e604482015260640161059d565b335f908152601760205260409020600281015480610acd576040517f08c379a000000000000000000000000000000000000000000000000000000000815260206004820152601760248201527f596f752068617665206e6f20696e766573746d656e742e000000000000000000604482015260640161059d565b5f8083556002830181905560018301819055604051339083908381818185875af1925050503d805f8114610b1c576040519150601f19603f3d011682016040523d82523d5f602084013e610b21565b606091505b5050905080610b8c576040517f08c379a000000000000000000000000000000000000000000000000000000000815260206004820152601060248201527f5472616e73666572206661696c65642e00000000000000000000000000000000604482015260640161059d565b505050565b6002546040517f70a082310000000000000000000000000000000000000000000000000000000081523060048201525f91829173ffffffffffffffffffffffffffffffffffffffff909116906370a0823190602401602060405180830381865afa158015610c01573d5f803e3d5ffd5b505050506040513d601f19601f82011682018060405250810190610c2591906122e7565b9050610c48601454610c426015548461190190919063ffffffff16565b90611c6b565b91505090565b610c56611939565b600d544211610cc1576040517f08c379a000000000000000000000000000000000000000000000000000000000815260206004820152601b60248201527f5468652049444f20706f6f6c20686173206e6f7420656e6465642e0000000000604482015260640161059d565b60065460135410610d2e576040517f08c379a000000000000000000000000000000000000000000000000000000000815260206004820181905260248201527f5468652049444f20706f6f6c2068617320726561636820736f6674206361702e604482015260640161059d565b6002546040517f70a082310000000000000000000000000000000000000000000000000000000081523060048201525f9173ffffffffffffffffffffffffffffffffffffffff16906370a0823190602401602060405180830381865afa158015610d9a573d5f803e3d5ffd5b505050506040513d601f19601f82011682018060405250810190610dbe91906122e7565b90505f8111610e4f576040517f08c379a000000000000000000000000000000000000000000000000000000000815260206004820152602360248201527f5468652049444f20706f6f6c20686173206e6f7420726566756e6420746f6b6560448201527f6e732e0000000000000000000000000000000000000000000000000000000000606482015260840161059d565b600254610e739073ffffffffffffffffffffffffffffffffffffffff1633836119b9565b50565b610e7e611939565b6109795f611c76565b600461096c8282612349565b610e9b611939565b60165460ff16610f2d576040517f08c379a000000000000000000000000000000000000000000000000000000000815260206004820152602360248201527f576974686472617720616c6c6f7765642061667465722064697374726962757460448201527f65642e0000000000000000000000000000000000000000000000000000000000606482015260840161059d565b5f610f36610b91565b90505f8111610e4f576040517f08c379a000000000000000000000000000000000000000000000000000000000815260206004820152602360248201527f5468652049444f20706f6f6c20686173206e6f7420756e736f6c6420746f6b6560448201527f6e732e0000000000000000000000000000000000000000000000000000000000606482015260840161059d565b610e7381611a46565b610fd8611939565b600d544211611043576040517f08c379a000000000000000000000000000000000000000000000000000000000815260206004820152601b60248201527f5468652049444f20706f6f6c20686173206e6f7420656e6465642e0000000000604482015260640161059d565b60065460135410156110d6576040517f08c379a0000000000000000000000000000000000000000000000000000000008152602060048201526024808201527f5468652049444f20706f6f6c20646964206e6f7420726561636820736f66742060448201527f6361702e00000000000000000000000000000000000000000000000000000000606482015260840161059d565b60165460ff1615611143576040517f08c379a000000000000000000000000000000000000000000000000000000000815260206004820152601460248201527f416c72656164792064697374726962757465642e000000000000000000000000604482015260640161059d565b600b544790158015906111575750600a5415155b1561176e576111663482612492565b90505f60646005600601548361117c91906124a5565b61118691906124bc565b90505f6111938284612492565b90505f6111a4836005800154611915565b600f546002546040517f095ea7b300000000000000000000000000000000000000000000000000000000815273ffffffffffffffffffffffffffffffffffffffff928316600482018190526024820185905293945091169063095ea7b3906044016020604051808303815f875af1158015611221573d5f803e3d5ffd5b505050506040513d601f19601f8201168201806040525081019061124591906124f4565b506002545f9073ffffffffffffffffffffffffffffffffffffffff8084169163f305d719918891168685803061127d42610168612513565b60405160e089901b7fffffffff0000000000000000000000000000000000000000000000000000000016815273ffffffffffffffffffffffffffffffffffffffff9687166004820152602481019590955260448501939093526064840191909152909216608482015260a481019190915260c40160606040518083038185885af115801561130d573d5f803e3d5ffd5b50505050506040513d601f19601f820116820180604052508101906113329190612526565b6010546002546011546040517fe6a4390500000000000000000000000000000000000000000000000000000000815273ffffffffffffffffffffffffffffffffffffffff928316600482015290821660248201529295505f945016915063e6a4390590604401602060405180830381865afa1580156113b3573d5f803e3d5ffd5b505050506040513d601f19601f820116820180604052508101906113d79190612551565b600e549091508190421015611610576012546040517f095ea7b300000000000000000000000000000000000000000000000000000000815273ffffffffffffffffffffffffffffffffffffffff9182166004820152602481018590529082169063095ea7b3906044016020604051808303815f875af115801561145c573d5f803e3d5ffd5b505050506040513d601f19601f8201168201806040525081019061148091906124f4565b5060125f9054906101000a900473ffffffffffffffffffffffffffffffffffffffff1673ffffffffffffffffffffffffffffffffffffffff166303f3dbac34838473ffffffffffffffffffffffffffffffffffffffff166395d89b416040518163ffffffff1660e01b81526004015f60405180830381865afa158015611508573d5f803e3d5ffd5b505050506040513d5f823e601f3d9081017fffffffffffffffffffffffffffffffffffffffffffffffffffffffffffffffe016820160405261154d919081019061256c565b60405160200161155d91906125de565b604080517fffffffffffffffffffffffffffffffffffffffffffffffffffffffffffffffe081840301815290829052600e547fffffffff0000000000000000000000000000000000000000000000000000000060e087901b1683526115c993928a91339160040161261e565b60206040518083038185885af11580156115e5573d5f803e3d5ffd5b50505050506040513d601f19601f8201168201806040525081019061160a9190612551565b506116b2565b6040517fa9059cbb0000000000000000000000000000000000000000000000000000000081523360048201526024810184905273ffffffffffffffffffffffffffffffffffffffff82169063a9059cbb906044016020604051808303815f875af1158015611680573d5f803e3d5ffd5b505050506040513d601f19601f820116820180604052508101906116a491906124f4565b506116af3487612513565b95505b6040515f90339088908381818185875af1925050503d805f81146116f1576040519150601f19603f3d011682016040523d82523d5f602084013e6116f6565b606091505b5050905080611761576040517f08c379a000000000000000000000000000000000000000000000000000000000815260206004820152601060248201527f5472616e73666572206661696c65642e00000000000000000000000000000000604482015260640161059d565b505050505050505061181f565b6040515f90339083908381818185875af1925050503d805f81146117ad576040519150601f19603f3d011682016040523d82523d5f602084013e6117b2565b606091505b505090508061181d576040517f08c379a000000000000000000000000000000000000000000000000000000000815260206004820152601060248201527f5472616e73666572206661696c65642e00000000000000000000000000000000604482015260640161059d565b505b50601680547fffffffffffffffffffffffffffffffffffffffffffffffffffffffffffffff00166001179055565b611855611939565b73ffffffffffffffffffffffffffffffffffffffff81166118f8576040517f08c379a000000000000000000000000000000000000000000000000000000000815260206004820152602660248201527f4f776e61626c653a206e6577206f776e657220697320746865207a65726f206160448201527f6464726573730000000000000000000000000000000000000000000000000000606482015260840161059d565b610e7381611c76565b5f61190c8284612513565b90505b92915050565b5f600354600a6119259190612787565b61192f83856124bc565b61190c91906124a5565b5f5473ffffffffffffffffffffffffffffffffffffffff163314610979576040517f08c379a000000000000000000000000000000000000000000000000000000000815260206004820181905260248201527f4f776e61626c653a2063616c6c6572206973206e6f7420746865206f776e6572604482015260640161059d565b6040805173ffffffffffffffffffffffffffffffffffffffff8416602482015260448082018490528251808303909101815260649091019091526020810180517bffffffffffffffffffffffffffffffffffffffffffffffffffffffff167fa9059cbb00000000000000000000000000000000000000000000000000000000179052610b8c908490611cea565b611a4e611df5565b600d544211611ab9576040517f08c379a000000000000000000000000000000000000000000000000000000000815260206004820152601b60248201527f5468652049444f20706f6f6c20686173206e6f7420656e6465642e0000000000604482015260640161059d565b6006546013541015611b4c576040517f08c379a0000000000000000000000000000000000000000000000000000000008152602060048201526024808201527f5468652049444f20706f6f6c20646964206e6f7420726561636820736f66742060448201527f6361702e00000000000000000000000000000000000000000000000000000000606482015260840161059d565b73ffffffffffffffffffffffffffffffffffffffff81165f908152601760205260409020805480611bd9576040517f08c379a000000000000000000000000000000000000000000000000000000000815260206004820152601c60248201527f596f7520646f206e6f742068617665206465627420746f6b656e732e00000000604482015260640161059d565b5f8255601554611be99082611901565b601555600254611c109073ffffffffffffffffffffffffffffffffffffffff1684836119b9565b8273ffffffffffffffffffffffffffffffffffffffff167f6352c5382c4a4578e712449ca65e83cdb392d045dfcf1cad9615189db2da244b82604051611c5891815260200190565b60405180910390a25050610e7360018055565b5f61190c8284612492565b5f805473ffffffffffffffffffffffffffffffffffffffff8381167fffffffffffffffffffffffff0000000000000000000000000000000000000000831681178455604051919092169283917f8be0079c531659141344cd1fd0a4f28419497f9722a3daafe3b4186f6b6457e09190a35050565b5f611d4b826040518060400160405280602081526020017f5361666545524332303a206c6f772d6c6576656c2063616c6c206661696c65648152508573ffffffffffffffffffffffffffffffffffffffff16611e689092919063ffffffff16565b805190915015610b8c5780806020019051810190611d6991906124f4565b610b8c576040517f08c379a000000000000000000000000000000000000000000000000000000000815260206004820152602a60248201527f5361666545524332303a204552433230206f7065726174696f6e20646964206e60448201527f6f74207375636365656400000000000000000000000000000000000000000000606482015260840161059d565b600260015403611e61576040517f08c379a000000000000000000000000000000000000000000000000000000000815260206004820152601f60248201527f5265656e7472616e637947756172643a207265656e7472616e742063616c6c00604482015260640161059d565b6002600155565b6060611e7684845f85611e7e565b949350505050565b606082471015611f10576040517f08c379a000000000000000000000000000000000000000000000000000000000815260206004820152602660248201527f416464726573733a20696e73756666696369656e742062616c616e636520666f60448201527f722063616c6c0000000000000000000000000000000000000000000000000000606482015260840161059d565b5f808673ffffffffffffffffffffffffffffffffffffffff168587604051611f389190612792565b5f6040518083038185875af1925050503d805f8114611f72576040519150601f19603f3d011682016040523d82523d5f602084013e611f77565b606091505b5091509150611f8887838387611f93565b979650505050505050565b606083156120285782515f036120215773ffffffffffffffffffffffffffffffffffffffff85163b612021576040517f08c379a000000000000000000000000000000000000000000000000000000000815260206004820152601d60248201527f416464726573733a2063616c6c20746f206e6f6e2d636f6e7472616374000000604482015260640161059d565b5081611e76565b611e76838381511561203d5781518083602001fd5b806040517f08c379a000000000000000000000000000000000000000000000000000000000815260040161059d919061211f565b73ffffffffffffffffffffffffffffffffffffffff81168114610e73575f80fd5b5f602082840312156120a2575f80fd5b81356120ad81612071565b9392505050565b5f5b838110156120ce5781810151838201526020016120b6565b50505f910152565b5f81518084526120ed8160208601602086016120b4565b601f017fffffffffffffffffffffffffffffffffffffffffffffffffffffffffffffffe0169290920160200192915050565b602081525f61190c60208301846120d6565b5f8060408385031215612142575f80fd5b823561214d81612071565b946020939093013593505050565b7f4e487b71000000000000000000000000000000000000000000000000000000005f52604160045260245ffd5b604051601f82017fffffffffffffffffffffffffffffffffffffffffffffffffffffffffffffffe016810167ffffffffffffffff811182821017156121cf576121cf61215b565b604052919050565b5f67ffffffffffffffff8211156121f0576121f061215b565b50601f017fffffffffffffffffffffffffffffffffffffffffffffffffffffffffffffffe01660200190565b5f6020828403121561222c575f80fd5b813567ffffffffffffffff811115612242575f80fd5b8201601f81018413612252575f80fd5b8035612265612260826121d7565b612188565b818152856020838501011115612279575f80fd5b816020840160208301375f91810160200191909152949350505050565b600181811c908216806122aa57607f821691505b6020821081036122e1577f4e487b71000000000000000000000000000000000000000000000000000000005f52602260045260245ffd5b50919050565b5f602082840312156122f7575f80fd5b5051919050565b601f821115610b8c57805f5260205f20601f840160051c810160208510156123235750805b601f840160051c820191505b81811015612342575f815560010161232f565b5050505050565b815167ffffffffffffffff8111156123635761236361215b565b612377816123718454612296565b846122fe565b602080601f8311600181146123c9575f84156123935750858301515b7fffffffffffffffffffffffffffffffffffffffffffffffffffffffffffffffff600386901b1c1916600185901b17855561245d565b5f858152602081207fffffffffffffffffffffffffffffffffffffffffffffffffffffffffffffffe08616915b82811015612415578886015182559484019460019091019084016123f6565b508582101561245157878501517fffffffffffffffffffffffffffffffffffffffffffffffffffffffffffffffff600388901b60f8161c191681555b505060018460011b0185555b505050505050565b7f4e487b71000000000000000000000000000000000000000000000000000000005f52601160045260245ffd5b8181038181111561190f5761190f612465565b808202811582820484141761190f5761190f612465565b5f826124ef577f4e487b71000000000000000000000000000000000000000000000000000000005f52601260045260245ffd5b500490565b5f60208284031215612504575f80fd5b815180151581146120ad575f80fd5b8082018082111561190f5761190f612465565b5f805f60608486031215612538575f80fd5b8351925060208401519150604084015190509250925092565b5f60208284031215612561575f80fd5b81516120ad81612071565b5f6020828403121561257c575f80fd5b815167ffffffffffffffff811115612592575f80fd5b8201601f810184136125a2575f80fd5b80516125b0612260826121d7565b8181528560208385010111156125c4575f80fd5b6125d58260208301602086016120b4565b95945050505050565b5f82516125ef8184602087016120b4565b7f20746f6b656e73206c6f636b6572000000000000000000000000000000000000920191825250600e01919050565b5f73ffffffffffffffffffffffffffffffffffffffff808816835260a0602084015261264d60a08401886120d6565b6040840196909652939093166060820152608001525092915050565b600181815b808511156126c257817fffffffffffffffffffffffffffffffffffffffffffffffffffffffffffffffff048211156126a8576126a8612465565b808516156126b557918102915b93841c939080029061266e565b509250929050565b5f826126d85750600161190f565b816126e457505f61190f565b81600181146126fa576002811461270457612720565b600191505061190f565b60ff84111561271557612715612465565b50506001821b61190f565b5060208310610133831016604e8410600b8410161715612743575081810a61190f565b61274d8383612669565b807fffffffffffffffffffffffffffffffffffffffffffffffffffffffffffffffff0482111561277f5761277f612465565b029392505050565b5f61190c83836126ca565b5f82516127a38184602087016120b4565b919091019291505056fea2646970667358221220e4edd96e0cd877d7891ce25643749951984d2907eca4f1397703e9d6a6b4996c64736f6c63430008180033a2646970667358221220e76410c4241305168270bd455acfc759d2072e717206d74fceaeebdecb4fc00064736f6c63430008180033",
  "immutableReferences": {},
  "source": "pragma solidity ^0.8.0;\n\nimport \"@openzeppelin/contracts/access/Ownable.sol\";\nimport \"@openzeppelin/contracts/utils/math/SafeMath.sol\";\nimport \"@openzeppelin/contracts/token/ERC20/utils/SafeERC20.sol\";\nimport \"@openzeppelin/contracts/token/ERC20/extensions/ERC20Burnable.sol\";\n\nimport \"./IDOPool.sol\";\n\ncontract IDOFactory is Ownable {\n    using SafeMath for uint256;\n    using SafeERC20 for ERC20Burnable;\n    using SafeERC20 for ERC20;\n\n    ERC20Burnable public feeToken;\n    address public feeWallet;\n    uint256 public feeAmount;\n    uint256 public burnPercent; // use this state only if your token is ERC20Burnable and has burnFrom method\n    uint256 public divider;\n\n    event IDOCreated(\n        address indexed owner,\n        address idoPool,\n        address indexed rewardToken,\n        string tokenURI\n    );\n\n    event TokenFeeUpdated(address newFeeToken);\n    event FeeAmountUpdated(uint256 newFeeAmount);\n    event BurnPercentUpdated(uint256 newBurnPercent, uint256 divider);\n    event FeeWalletUpdated(address newFeeWallet);\n\n    constructor(\n        ERC20Burnable _feeToken,\n        uint256 _feeAmount,\n        uint256 _burnPercent\n    ){\n        feeToken = _feeToken;\n        feeAmount = _feeAmount;\n        burnPercent = _burnPercent;\n        divider = 100;\n    }\n\n    function setFeeToken(address _newFeeToken) external onlyOwner {\n        require(isContract(_newFeeToken), \"New address is not a token\");\n        feeToken = ERC20Burnable(_newFeeToken);\n\n        emit TokenFeeUpdated(_newFeeToken);\n    }\n\n    function setFeeAmount(uint256 _newFeeAmount) external onlyOwner {\n        feeAmount = _newFeeAmount;\n\n        emit FeeAmountUpdated(_newFeeAmount);\n    }\n\n    function setFeeWallet(address _newFeeWallet) external onlyOwner {\n        feeWallet = _newFeeWallet;\n\n        emit FeeWalletUpdated(_newFeeWallet);\n    }\n\n    function setBurnPercent(uint256 _newBurnPercent, uint256 _newDivider)\n        external\n        onlyOwner\n    {\n        require(_newBurnPercent <= _newDivider, \"Burn percent must be less than divider\");\n        burnPercent = _newBurnPercent;\n        divider = _newDivider;\n\n        emit BurnPercentUpdated(_newBurnPercent, _newDivider);\n    }\n\n    function createIDO(\n        ERC20 _rewardToken,\n        IDOPool.FinInfo memory _finInfo,\n        IDOPool.Timestamps memory _timestamps,\n        IDOPool.DEXInfo memory _dexInfo,\n        address _lockerFactoryAddress,\n        string memory _metadataURL\n    ) external {\n        IDOPool idoPool =\n            new IDOPool(\n                _rewardToken,\n                _finInfo,\n                _timestamps,\n                _dexInfo,\n                _lockerFactoryAddress,\n                _metadataURL\n            );\n\n        uint8 tokenDecimals = _rewardToken.decimals();\n\n        uint256 transferAmount = getTokenAmount(_finInfo.hardCap, _finInfo.tokenPrice, tokenDecimals);\n\n        if (_finInfo.lpInterestRate > 0 && _finInfo.listingPrice > 0) {\n            transferAmount += getTokenAmount(_finInfo.hardCap * _finInfo.lpInterestRate / 100, _finInfo.listingPrice, tokenDecimals);\n        }\n\n        idoPool.transferOwnership(msg.sender);\n\n        _rewardToken.safeTransferFrom(\n            msg.sender,\n            address(idoPool),\n            transferAmount\n        );\n\n        emit IDOCreated(\n            msg.sender,\n            address(idoPool),\n            address(_rewardToken),\n            _metadataURL\n        );\n\n\n        if(feeAmount > 0){\n            if (burnPercent > 0){\n                uint256 burnAmount = feeAmount.mul(burnPercent).div(divider);\n\n                feeToken.safeTransferFrom(\n                    msg.sender,\n                    feeWallet,\n                    feeAmount.sub(burnAmount)\n                );\n\n                feeToken.burnFrom(msg.sender, burnAmount);\n            } else {\n                feeToken.safeTransferFrom(\n                    msg.sender,\n                    feeWallet,\n                    feeAmount\n                );\n            }\n        }\n    }\n\n    function getTokenAmount(uint256 ethAmount, uint256 oneTokenInWei, uint8 decimals)\n        internal\n        pure\n        returns (uint256)\n    {\n        return (ethAmount / oneTokenInWei) * 10**decimals;\n    }\n\n    function isContract(address _addr) private view returns (bool) {\n        uint32 size;\n        assembly {\n            size := extcodesize(_addr)\n        }\n        return (size > 0);\n    }\n\n}",
  "sourcePath": "/Users/rectinajh/src/launchpad/contracts/IDOFactory.sol",
  "compiler": {
    "name": "solc",
    "version": "0.8.24+commit.e11b9ed9.Emscripten.clang"
  },
  "schemaVersion": "3.4.16",
  "updatedAt": "2024-03-05T17:48:36.355Z",
  "devdoc": {
    "kind": "dev",
    "methods": {
      "owner()": {
        "details": "Returns the address of the current owner."
      },
      "renounceOwnership()": {
        "details": "Leaves the contract without owner. It will not be possible to call `onlyOwner` functions anymore. Can only be called by the current owner. NOTE: Renouncing ownership will leave the contract without an owner, thereby removing any functionality that is only available to the owner."
      },
      "transferOwnership(address)": {
        "details": "Transfers ownership of the contract to a new account (`newOwner`). Can only be called by the current owner."
      }
    },
    "version": 1
  },
  "userdoc": {
    "kind": "user",
    "methods": {},
    "version": 1
  }
}