{
  "contractName": "IDOPool",
  "abi": [
    {
      "inputs": [
        {
          "internalType": "contract ERC20",
          "name": "_rewardToken",
          "type": "address"
        },
        {
          "components": [
            {
              "internalType": "uint256",
              "name": "tokenPrice",
              "type": "uint256"
            },
            {
              "internalType": "uint256",
              "name": "softCap",
              "type": "uint256"
            },
            {
              "internalType": "uint256",
              "name": "hardCap",
              "type": "uint256"
            },
            {
              "internalType": "uint256",
              "name": "minEthPayment",
              "type": "uint256"
            },
            {
              "internalType": "uint256",
              "name": "maxEthPayment",
              "type": "uint256"
            },
            {
              "internalType": "uint256",
              "name": "listingPrice",
              "type": "uint256"
            },
            {
              "internalType": "uint256",
              "name": "lpInterestRate",
              "type": "uint256"
            }
          ],
          "internalType": "struct IDOPool.FinInfo",
          "name": "_finInfo",
          "type": "tuple"
        },
        {
          "components": [
            {
              "internalType": "uint256",
              "name": "startTimestamp",
              "type": "uint256"
            },
            {
              "internalType": "uint256",
              "name": "endTimestamp",
              "type": "uint256"
            },
            {
              "internalType": "uint256",
              "name": "unlockTimestamp",
              "type": "uint256"
            }
          ],
          "internalType": "struct IDOPool.Timestamps",
          "name": "_timestamps",
          "type": "tuple"
        },
        {
          "components": [
            {
              "internalType": "address",
              "name": "router",
              "type": "address"
            },
            {
              "internalType": "address",
              "name": "factory",
              "type": "address"
            },
            {
              "internalType": "address",
              "name": "weth",
              "type": "address"
            }
          ],
          "internalType": "struct IDOPool.DEXInfo",
          "name": "_dexInfo",
          "type": "tuple"
        },
        {
          "internalType": "address",
          "name": "_lockerFactoryAddress",
          "type": "address"
        },
        {
          "internalType": "string",
          "name": "_metadataURL",
          "type": "string"
        }
      ],
      "stateMutability": "nonpayable",
      "type": "constructor"
    },
    {
      "anonymous": false,
      "inputs": [
        {
          "indexed": true,
          "internalType": "address",
          "name": "previousOwner",
          "type": "address"
        },
        {
          "indexed": true,
          "internalType": "address",
          "name": "newOwner",
          "type": "address"
        }
      ],
      "name": "OwnershipTransferred",
      "type": "event"
    },
    {
      "anonymous": false,
      "inputs": [
        {
          "indexed": true,
          "internalType": "address",
          "name": "holder",
          "type": "address"
        },
        {
          "indexed": false,
          "internalType": "uint256",
          "name": "ethAmount",
          "type": "uint256"
        },
        {
          "indexed": false,
          "internalType": "uint256",
          "name": "tokenAmount",
          "type": "uint256"
        }
      ],
      "name": "TokensDebt",
      "type": "event"
    },
    {
      "anonymous": false,
      "inputs": [
        {
          "indexed": true,
          "internalType": "address",
          "name": "holder",
          "type": "address"
        },
        {
          "indexed": false,
          "internalType": "uint256",
          "name": "amount",
          "type": "uint256"
        }
      ],
      "name": "TokensWithdrawn",
      "type": "event"
    },
    {
      "inputs": [],
      "name": "decimals",
      "outputs": [
        {
          "internalType": "uint256",
          "name": "",
          "type": "uint256"
        }
      ],
      "stateMutability": "view",
      "type": "function"
    },
    {
      "inputs": [],
      "name": "dexInfo",
      "outputs": [
        {
          "internalType": "address",
          "name": "router",
          "type": "address"
        },
        {
          "internalType": "address",
          "name": "factory",
          "type": "address"
        },
        {
          "internalType": "address",
          "name": "weth",
          "type": "address"
        }
      ],
      "stateMutability": "view",
      "type": "function"
    },
    {
      "inputs": [],
      "name": "distributed",
      "outputs": [
        {
          "internalType": "bool",
          "name": "",
          "type": "bool"
        }
      ],
      "stateMutability": "view",
      "type": "function"
    },
    {
      "inputs": [],
      "name": "distributedTokens",
      "outputs": [
        {
          "internalType": "uint256",
          "name": "",
          "type": "uint256"
        }
      ],
      "stateMutability": "view",
      "type": "function"
    },
    {
      "inputs": [],
      "name": "finInfo",
      "outputs": [
        {
          "internalType": "uint256",
          "name": "tokenPrice",
          "type": "uint256"
        },
        {
          "internalType": "uint256",
          "name": "softCap",
          "type": "uint256"
        },
        {
          "internalType": "uint256",
          "name": "hardCap",
          "type": "uint256"
        },
        {
          "internalType": "uint256",
          "name": "minEthPayment",
          "type": "uint256"
        },
        {
          "internalType": "uint256",
          "name": "maxEthPayment",
          "type": "uint256"
        },
        {
          "internalType": "uint256",
          "name": "listingPrice",
          "type": "uint256"
        },
        {
          "internalType": "uint256",
          "name": "lpInterestRate",
          "type": "uint256"
        }
      ],
      "stateMutability": "view",
      "type": "function"
    },
    {
      "inputs": [],
      "name": "lockerFactory",
      "outputs": [
        {
          "internalType": "contract TokenLockerFactory",
          "name": "",
          "type": "address"
        }
      ],
      "stateMutability": "view",
      "type": "function"
    },
    {
      "inputs": [],
      "name": "metadataURL",
      "outputs": [
        {
          "internalType": "string",
          "name": "",
          "type": "string"
        }
      ],
      "stateMutability": "view",
      "type": "function"
    },
    {
      "inputs": [],
      "name": "owner",
      "outputs": [
        {
          "internalType": "address",
          "name": "",
          "type": "address"
        }
      ],
      "stateMutability": "view",
      "type": "function"
    },
    {
      "inputs": [],
      "name": "renounceOwnership",
      "outputs": [],
      "stateMutability": "nonpayable",
      "type": "function"
    },
    {
      "inputs": [],
      "name": "rewardToken",
      "outputs": [
        {
          "internalType": "contract ERC20",
          "name": "",
          "type": "address"
        }
      ],
      "stateMutability": "view",
      "type": "function"
    },
    {
      "inputs": [],
      "name": "timestamps",
      "outputs": [
        {
          "internalType": "uint256",
          "name": "startTimestamp",
          "type": "uint256"
        },
        {
          "internalType": "uint256",
          "name": "endTimestamp",
          "type": "uint256"
        },
        {
          "internalType": "uint256",
          "name": "unlockTimestamp",
          "type": "uint256"
        }
      ],
      "stateMutability": "view",
      "type": "function"
    },
    {
      "inputs": [],
      "name": "tokensForDistribution",
      "outputs": [
        {
          "internalType": "uint256",
          "name": "",
          "type": "uint256"
        }
      ],
      "stateMutability": "view",
      "type": "function"
    },
    {
      "inputs": [],
      "name": "totalInvestedETH",
      "outputs": [
        {
          "internalType": "uint256",
          "name": "",
          "type": "uint256"
        }
      ],
      "stateMutability": "view",
      "type": "function"
    },
    {
      "inputs": [
        {
          "internalType": "address",
          "name": "newOwner",
          "type": "address"
        }
      ],
      "name": "transferOwnership",
      "outputs": [],
      "stateMutability": "nonpayable",
      "type": "function"
    },
    {
      "inputs": [
        {
          "internalType": "address",
          "name": "",
          "type": "address"
        }
      ],
      "name": "userInfo",
      "outputs": [
        {
          "internalType": "uint256",
          "name": "debt",
          "type": "uint256"
        },
        {
          "internalType": "uint256",
          "name": "total",
          "type": "uint256"
        },
        {
          "internalType": "uint256",
          "name": "totalInvestedETH",
          "type": "uint256"
        }
      ],
      "stateMutability": "view",
      "type": "function"
    },
    {
      "inputs": [
        {
          "internalType": "string",
          "name": "_metadataURL",
          "type": "string"
        }
      ],
      "name": "setMetadataURL",
      "outputs": [],
      "stateMutability": "nonpayable",
      "type": "function"
    },
    {
      "inputs": [],
      "name": "pay",
      "outputs": [],
      "stateMutability": "payable",
      "type": "function"
    },
    {
      "inputs": [],
      "name": "refund",
      "outputs": [],
      "stateMutability": "nonpayable",
      "type": "function"
    },
    {
      "inputs": [
        {
          "internalType": "address",
          "name": "_user",
          "type": "address"
        }
      ],
      "name": "claimFor",
      "outputs": [],
      "stateMutability": "nonpayable",
      "type": "function"
    },
    {
      "inputs": [],
      "name": "claim",
      "outputs": [],
      "stateMutability": "nonpayable",
      "type": "function"
    },
    {
      "inputs": [],
      "name": "withdrawETH",
      "outputs": [],
      "stateMutability": "payable",
      "type": "function"
    },
    {
      "inputs": [],
      "name": "withdrawNotSoldTokens",
      "outputs": [],
      "stateMutability": "nonpayable",
      "type": "function"
    },
    {
      "inputs": [],
      "name": "getNotSoldToken",
      "outputs": [
        {
          "internalType": "uint256",
          "name": "",
          "type": "uint256"
        }
      ],
      "stateMutability": "view",
      "type": "function"
    },
    {
      "inputs": [],
      "name": "refundTokens",
      "outputs": [],
      "stateMutability": "nonpayable",
      "type": "function"
    },
    {
      "inputs": [
        {
          "internalType": "address",
          "name": "_tokenAddress",
          "type": "address"
        },
        {
          "internalType": "uint256",
          "name": "_tokenAmount",
          "type": "uint256"
        }
      ],
      "name": "recoverWrongTokens",
      "outputs": [],
      "stateMutability": "nonpayable",
      "type": "function"
    }
  ],
  "bytecode": "0x60806040526016805460ff191690553480156200001a575f80fd5b5060405162002f2a38038062002f2a8339810160408190526200003d91620004c4565b62000048336200018a565b60018055600280546001600160a01b0319166001600160a01b0388169081179091556040805163313ce56760e01b8152905163313ce567916004808201926020929091908290030181865afa158015620000a4573d5f803e3d5ffd5b505050506040513d601f19601f82011682018060405250810190620000ca9190620005ba565b60ff16600355601280546001600160a01b0319166001600160a01b0384161790558451600555602085015160065560408501516007556060850151600855608085015160095560a0850151600a5560c0850151600b556200012b84620001d9565b8251600f80546001600160a01b039283166001600160a01b0319918216179091556020850151601080549184169183169190911790556040850151601180549190931691161790556200017e81620002d2565b50505050505062000739565b5f80546001600160a01b038381166001600160a01b0319831681178455604051919092169283917f8be0079c531659141344cd1fd0a4f28419497f9722a3daafe3b4186f6b6457e09190a35050565b60208101518151106200024e5760405162461bcd60e51b815260206004820152603260248201527f53746172742074696d657374616d70206d757374206265206c6573732074686160448201527106e2066696e6973682074696d657374616d760741b60648201526084015b60405180910390fd5b42816020015111620002bc5760405162461bcd60e51b815260206004820152603060248201527f46696e6973682074696d657374616d70206d757374206265206d6f726520746860448201526f616e2063757272656e7420626c6f636b60801b606482015260840162000245565b8051600c556020810151600d5560400151600e55565b6004620002e082826200066d565b5050565b6001600160a01b0381168114620002f9575f80fd5b50565b634e487b7160e01b5f52604160045260245ffd5b604051606081016001600160401b0381118282101715620003355762000335620002fc565b60405290565b60405160e081016001600160401b0381118282101715620003355762000335620002fc565b604051601f8201601f191681016001600160401b03811182821017156200038b576200038b620002fc565b604052919050565b5f60608284031215620003a4575f80fd5b620003ae62000310565b905081518152602082015160208201526040820151604082015292915050565b8051620003db81620002e4565b919050565b5f60608284031215620003f1575f80fd5b620003fb62000310565b905081516200040a81620002e4565b815260208201516200041c81620002e4565b602082015260408201516200043181620002e4565b604082015292915050565b5f82601f8301126200044c575f80fd5b81516001600160401b03811115620004685762000468620002fc565b60206200047e601f8301601f1916820162000360565b828152858284870101111562000492575f80fd5b5f5b83811015620004b157858101830151828201840152820162000494565b505f928101909101919091529392505050565b5f805f805f80868803610200811215620004dc575f80fd5b8751620004e981620002e4565b965060e0601f1982011215620004fd575f80fd5b50620005086200033b565b6020880151815260408801516020820152606088015160408201526080880151606082015260a0880151608082015260c088015160a082015260e088015160c0820152809550506200055f88610100890162000393565b935062000571886101608901620003e0565b9250620005826101c08801620003ce565b6101e08801519092506001600160401b038111156200059f575f80fd5b620005ad89828a016200043c565b9150509295509295509295565b5f60208284031215620005cb575f80fd5b815160ff81168114620005dc575f80fd5b9392505050565b600181811c90821680620005f857607f821691505b6020821081036200061757634e487b7160e01b5f52602260045260245ffd5b50919050565b601f8211156200066857805f5260205f20601f840160051c81016020851015620006445750805b601f840160051c820191505b8181101562000665575f815560010162000650565b50505b505050565b81516001600160401b03811115620006895762000689620002fc565b620006a1816200069a8454620005e3565b846200061d565b602080601f831160018114620006d7575f8415620006bf5750858301515b5f19600386901b1c1916600185901b17855562000731565b5f85815260208120601f198616915b828110156200070757888601518255948401946001909101908401620006e6565b50858210156200072557878501515f19600388901b60f8161c191681555b505060018460011b0185555b505050505050565b6127e380620007475f395ff3fe60806040526004361061018e575f3560e01c806362bea93f116100dc578063d8d2a56d11610087578063f2fde38b11610062578063f2fde38b146104ac578063f7c618c1146104cb578063f84b903e146104f7578063fd46a17114610520575f80fd5b8063d8d2a56d14610415578063ddeae03314610485578063e086e5ec146104a4575f80fd5b8063747daec5116100b7578063747daec5146103b95780638da5cb5b146103d8578063c6a0e27d14610401575f80fd5b806362bea93f1461037d5780637100750914610391578063715018a6146103a5575f80fd5b80633f138d4b1161013c5780634e71d92d116101175780634e71d92d14610340578063586360ce14610354578063590e1ae314610369575f80fd5b80633f138d4b146102ee578063491447a81461030d5780634b1a4c0c1461032b575f80fd5b80632a123b161161016c5780632a123b16146102595780632dcc8c66146102aa578063313ce567146102cb575f80fd5b806312d3675e146101925780631959a002146101fa5780631b9265b81461024f575b5f80fd5b34801561019d575f80fd5b50600554600654600754600854600954600a54600b546101c09695949392919087565b604080519788526020880196909652948601939093526060850191909152608084015260a083015260c082015260e0015b60405180910390f35b348015610205575f80fd5b50610234610214366004612092565b60176020525f908152604090208054600182015460029092015490919083565b604080519384526020840192909252908201526060016101f1565b610257610535565b005b348015610264575f80fd5b506012546102859073ffffffffffffffffffffffffffffffffffffffff1681565b60405173ffffffffffffffffffffffffffffffffffffffff90911681526020016101f1565b3480156102b5575f80fd5b506102be610890565b6040516101f1919061211f565b3480156102d6575f80fd5b506102e060035481565b6040519081526020016101f1565b3480156102f9575f80fd5b50610257610308366004612131565b61091c565b348015610318575f80fd5b50600c54600d54600e5461023492919083565b348015610336575f80fd5b506102e060145481565b34801561034b575f80fd5b50610257610970565b34801561035f575f80fd5b506102e060155481565b348015610374575f80fd5b5061025761097b565b348015610388575f80fd5b506102e0610b91565b34801561039c575f80fd5b50610257610c4e565b3480156103b0575f80fd5b50610257610e76565b3480156103c4575f80fd5b506102576103d336600461221c565b610e87565b3480156103e3575f80fd5b505f5473ffffffffffffffffffffffffffffffffffffffff16610285565b34801561040c575f80fd5b50610257610e93565b348015610420575f80fd5b50600f5460105460115461044e9273ffffffffffffffffffffffffffffffffffffffff908116928116911683565b6040805173ffffffffffffffffffffffffffffffffffffffff948516815292841660208401529216918101919091526060016101f1565b348015610490575f80fd5b5061025761049f366004612092565b610fc7565b610257610fd0565b3480156104b7575f80fd5b506102576104c6366004612092565b61184d565b3480156104d6575f80fd5b506002546102859073ffffffffffffffffffffffffffffffffffffffff1681565b348015610502575f80fd5b506016546105109060ff1681565b60405190151581526020016101f1565b34801561052b575f80fd5b506102e060135481565b600c544210156105a6576040517f08c379a000000000000000000000000000000000000000000000000000000000815260206004820152600b60248201527f4e6f74207374617274656400000000000000000000000000000000000000000060448201526064015b60405180910390fd5b600d544210610611576040517f08c379a000000000000000000000000000000000000000000000000000000000815260206004820152600560248201527f456e646564000000000000000000000000000000000000000000000000000000604482015260640161059d565b60085434101561067d576040517f08c379a000000000000000000000000000000000000000000000000000000000815260206004820152601460248201527f4c657373207468656e206d696e20616d6f756e74000000000000000000000000604482015260640161059d565b6009543411156106e9576040517f08c379a000000000000000000000000000000000000000000000000000000000815260206004820152601460248201527f4d6f7265207468656e206d617820616d6f756e74000000000000000000000000604482015260640161059d565b6007546013546106f99034611901565b1115610761576040517f08c379a000000000000000000000000000000000000000000000000000000000815260206004820152600a60248201527f4f76657266696c6c656400000000000000000000000000000000000000000000604482015260640161059d565b335f90815260176020526040902060095460028201546107819034611901565b11156107e9576040517f08c379a000000000000000000000000000000000000000000000000000000000815260206004820152601460248201527f4d6f7265207468656e206d617820616d6f756e74000000000000000000000000604482015260640161059d565b5f6107f83460055f0154611915565b6013549091506108089034611901565b6013556014546108189082611901565b601455600282015461082a9034611901565b6002830155600182015461083e9082611901565b6001830155815461084f9082611901565b8255604080513481526020810183905233917fb55d4ca2fc644ca3f8cdc9c907826e24acd68d2b2d4d73f48b8f2378dbaedf5d910160405180910390a25050565b6004805461089d90612296565b80601f01602080910402602001604051908101604052809291908181526020018280546108c990612296565b80156109145780601f106108eb57610100808354040283529160200191610914565b820191905f5260205f20905b8154815290600101906020018083116108f757829003601f168201915b505050505081565b610924611939565b60025473ffffffffffffffffffffffffffffffffffffffff9081169083160361094b575f80fd5b61096c73ffffffffffffffffffffffffffffffffffffffff831633836119b9565b5050565b61097933611a46565b565b600d5442116109e6576040517f08c379a000000000000000000000000000000000000000000000000000000000815260206004820152601b60248201527f5468652049444f20706f6f6c20686173206e6f7420656e6465642e0000000000604482015260640161059d565b60065460135410610a53576040517f08c379a000000000000000000000000000000000000000000000000000000000815260206004820181905260248201527f5468652049444f20706f6f6c2068617320726561636820736f6674206361702e604482015260640161059d565b335f908152601760205260409020600281015480610acd576040517f08c379a000000000000000000000000000000000000000000000000000000000815260206004820152601760248201527f596f752068617665206e6f20696e766573746d656e742e000000000000000000604482015260640161059d565b5f8083556002830181905560018301819055604051339083908381818185875af1925050503d805f8114610b1c576040519150601f19603f3d011682016040523d82523d5f602084013e610b21565b606091505b5050905080610b8c576040517f08c379a000000000000000000000000000000000000000000000000000000000815260206004820152601060248201527f5472616e73666572206661696c65642e00000000000000000000000000000000604482015260640161059d565b505050565b6002546040517f70a082310000000000000000000000000000000000000000000000000000000081523060048201525f91829173ffffffffffffffffffffffffffffffffffffffff909116906370a0823190602401602060405180830381865afa158015610c01573d5f803e3d5ffd5b505050506040513d601f19601f82011682018060405250810190610c2591906122e7565b9050610c48601454610c426015548461190190919063ffffffff16565b90611c6b565b91505090565b610c56611939565b600d544211610cc1576040517f08c379a000000000000000000000000000000000000000000000000000000000815260206004820152601b60248201527f5468652049444f20706f6f6c20686173206e6f7420656e6465642e0000000000604482015260640161059d565b60065460135410610d2e576040517f08c379a000000000000000000000000000000000000000000000000000000000815260206004820181905260248201527f5468652049444f20706f6f6c2068617320726561636820736f6674206361702e604482015260640161059d565b6002546040517f70a082310000000000000000000000000000000000000000000000000000000081523060048201525f9173ffffffffffffffffffffffffffffffffffffffff16906370a0823190602401602060405180830381865afa158015610d9a573d5f803e3d5ffd5b505050506040513d601f19601f82011682018060405250810190610dbe91906122e7565b90505f8111610e4f576040517f08c379a000000000000000000000000000000000000000000000000000000000815260206004820152602360248201527f5468652049444f20706f6f6c20686173206e6f7420726566756e6420746f6b6560448201527f6e732e0000000000000000000000000000000000000000000000000000000000606482015260840161059d565b600254610e739073ffffffffffffffffffffffffffffffffffffffff1633836119b9565b50565b610e7e611939565b6109795f611c76565b600461096c8282612349565b610e9b611939565b60165460ff16610f2d576040517f08c379a000000000000000000000000000000000000000000000000000000000815260206004820152602360248201527f576974686472617720616c6c6f7765642061667465722064697374726962757460448201527f65642e0000000000000000000000000000000000000000000000000000000000606482015260840161059d565b5f610f36610b91565b90505f8111610e4f576040517f08c379a000000000000000000000000000000000000000000000000000000000815260206004820152602360248201527f5468652049444f20706f6f6c20686173206e6f7420756e736f6c6420746f6b6560448201527f6e732e0000000000000000000000000000000000000000000000000000000000606482015260840161059d565b610e7381611a46565b610fd8611939565b600d544211611043576040517f08c379a000000000000000000000000000000000000000000000000000000000815260206004820152601b60248201527f5468652049444f20706f6f6c20686173206e6f7420656e6465642e0000000000604482015260640161059d565b60065460135410156110d6576040517f08c379a0000000000000000000000000000000000000000000000000000000008152602060048201526024808201527f5468652049444f20706f6f6c20646964206e6f7420726561636820736f66742060448201527f6361702e00000000000000000000000000000000000000000000000000000000606482015260840161059d565b60165460ff1615611143576040517f08c379a000000000000000000000000000000000000000000000000000000000815260206004820152601460248201527f416c72656164792064697374726962757465642e000000000000000000000000604482015260640161059d565b600b544790158015906111575750600a5415155b1561176e576111663482612492565b90505f60646005600601548361117c91906124a5565b61118691906124bc565b90505f6111938284612492565b90505f6111a4836005800154611915565b600f546002546040517f095ea7b300000000000000000000000000000000000000000000000000000000815273ffffffffffffffffffffffffffffffffffffffff928316600482018190526024820185905293945091169063095ea7b3906044016020604051808303815f875af1158015611221573d5f803e3d5ffd5b505050506040513d601f19601f8201168201806040525081019061124591906124f4565b506002545f9073ffffffffffffffffffffffffffffffffffffffff8084169163f305d719918891168685803061127d42610168612513565b60405160e089901b7fffffffff0000000000000000000000000000000000000000000000000000000016815273ffffffffffffffffffffffffffffffffffffffff9687166004820152602481019590955260448501939093526064840191909152909216608482015260a481019190915260c40160606040518083038185885af115801561130d573d5f803e3d5ffd5b50505050506040513d601f19601f820116820180604052508101906113329190612526565b6010546002546011546040517fe6a4390500000000000000000000000000000000000000000000000000000000815273ffffffffffffffffffffffffffffffffffffffff928316600482015290821660248201529295505f945016915063e6a4390590604401602060405180830381865afa1580156113b3573d5f803e3d5ffd5b505050506040513d601f19601f820116820180604052508101906113d79190612551565b600e549091508190421015611610576012546040517f095ea7b300000000000000000000000000000000000000000000000000000000815273ffffffffffffffffffffffffffffffffffffffff9182166004820152602481018590529082169063095ea7b3906044016020604051808303815f875af115801561145c573d5f803e3d5ffd5b505050506040513d601f19601f8201168201806040525081019061148091906124f4565b5060125f9054906101000a900473ffffffffffffffffffffffffffffffffffffffff1673ffffffffffffffffffffffffffffffffffffffff166303f3dbac34838473ffffffffffffffffffffffffffffffffffffffff166395d89b416040518163ffffffff1660e01b81526004015f60405180830381865afa158015611508573d5f803e3d5ffd5b505050506040513d5f823e601f3d9081017fffffffffffffffffffffffffffffffffffffffffffffffffffffffffffffffe016820160405261154d919081019061256c565b60405160200161155d91906125de565b604080517fffffffffffffffffffffffffffffffffffffffffffffffffffffffffffffffe081840301815290829052600e547fffffffff0000000000000000000000000000000000000000000000000000000060e087901b1683526115c993928a91339160040161261e565b60206040518083038185885af11580156115e5573d5f803e3d5ffd5b50505050506040513d601f19601f8201168201806040525081019061160a9190612551565b506116b2565b6040517fa9059cbb0000000000000000000000000000000000000000000000000000000081523360048201526024810184905273ffffffffffffffffffffffffffffffffffffffff82169063a9059cbb906044016020604051808303815f875af1158015611680573d5f803e3d5ffd5b505050506040513d601f19601f820116820180604052508101906116a491906124f4565b506116af3487612513565b95505b6040515f90339088908381818185875af1925050503d805f81146116f1576040519150601f19603f3d011682016040523d82523d5f602084013e6116f6565b606091505b5050905080611761576040517f08c379a000000000000000000000000000000000000000000000000000000000815260206004820152601060248201527f5472616e73666572206661696c65642e00000000000000000000000000000000604482015260640161059d565b505050505050505061181f565b6040515f90339083908381818185875af1925050503d805f81146117ad576040519150601f19603f3d011682016040523d82523d5f602084013e6117b2565b606091505b505090508061181d576040517f08c379a000000000000000000000000000000000000000000000000000000000815260206004820152601060248201527f5472616e73666572206661696c65642e00000000000000000000000000000000604482015260640161059d565b505b50601680547fffffffffffffffffffffffffffffffffffffffffffffffffffffffffffffff00166001179055565b611855611939565b73ffffffffffffffffffffffffffffffffffffffff81166118f8576040517f08c379a000000000000000000000000000000000000000000000000000000000815260206004820152602660248201527f4f776e61626c653a206e6577206f776e657220697320746865207a65726f206160448201527f6464726573730000000000000000000000000000000000000000000000000000606482015260840161059d565b610e7381611c76565b5f61190c8284612513565b90505b92915050565b5f600354600a6119259190612787565b61192f83856124bc565b61190c91906124a5565b5f5473ffffffffffffffffffffffffffffffffffffffff163314610979576040517f08c379a000000000000000000000000000000000000000000000000000000000815260206004820181905260248201527f4f776e61626c653a2063616c6c6572206973206e6f7420746865206f776e6572604482015260640161059d565b6040805173ffffffffffffffffffffffffffffffffffffffff8416602482015260448082018490528251808303909101815260649091019091526020810180517bffffffffffffffffffffffffffffffffffffffffffffffffffffffff167fa9059cbb00000000000000000000000000000000000000000000000000000000179052610b8c908490611cea565b611a4e611df5565b600d544211611ab9576040517f08c379a000000000000000000000000000000000000000000000000000000000815260206004820152601b60248201527f5468652049444f20706f6f6c20686173206e6f7420656e6465642e0000000000604482015260640161059d565b6006546013541015611b4c576040517f08c379a0000000000000000000000000000000000000000000000000000000008152602060048201526024808201527f5468652049444f20706f6f6c20646964206e6f7420726561636820736f66742060448201527f6361702e00000000000000000000000000000000000000000000000000000000606482015260840161059d565b73ffffffffffffffffffffffffffffffffffffffff81165f908152601760205260409020805480611bd9576040517f08c379a000000000000000000000000000000000000000000000000000000000815260206004820152601c60248201527f596f7520646f206e6f742068617665206465627420746f6b656e732e00000000604482015260640161059d565b5f8255601554611be99082611901565b601555600254611c109073ffffffffffffffffffffffffffffffffffffffff1684836119b9565b8273ffffffffffffffffffffffffffffffffffffffff167f6352c5382c4a4578e712449ca65e83cdb392d045dfcf1cad9615189db2da244b82604051611c5891815260200190565b60405180910390a25050610e7360018055565b5f61190c8284612492565b5f805473ffffffffffffffffffffffffffffffffffffffff8381167fffffffffffffffffffffffff0000000000000000000000000000000000000000831681178455604051919092169283917f8be0079c531659141344cd1fd0a4f28419497f9722a3daafe3b4186f6b6457e09190a35050565b5f611d4b826040518060400160405280602081526020017f5361666545524332303a206c6f772d6c6576656c2063616c6c206661696c65648152508573ffffffffffffffffffffffffffffffffffffffff16611e689092919063ffffffff16565b805190915015610b8c5780806020019051810190611d6991906124f4565b610b8c576040517f08c379a000000000000000000000000000000000000000000000000000000000815260206004820152602a60248201527f5361666545524332303a204552433230206f7065726174696f6e20646964206e60448201527f6f74207375636365656400000000000000000000000000000000000000000000606482015260840161059d565b600260015403611e61576040517f08c379a000000000000000000000000000000000000000000000000000000000815260206004820152601f60248201527f5265656e7472616e637947756172643a207265656e7472616e742063616c6c00604482015260640161059d565b6002600155565b6060611e7684845f85611e7e565b949350505050565b606082471015611f10576040517f08c379a000000000000000000000000000000000000000000000000000000000815260206004820152602660248201527f416464726573733a20696e73756666696369656e742062616c616e636520666f60448201527f722063616c6c0000000000000000000000000000000000000000000000000000606482015260840161059d565b5f808673ffffffffffffffffffffffffffffffffffffffff168587604051611f389190612792565b5f6040518083038185875af1925050503d805f8114611f72576040519150601f19603f3d011682016040523d82523d5f602084013e611f77565b606091505b5091509150611f8887838387611f93565b979650505050505050565b606083156120285782515f036120215773ffffffffffffffffffffffffffffffffffffffff85163b612021576040517f08c379a000000000000000000000000000000000000000000000000000000000815260206004820152601d60248201527f416464726573733a2063616c6c20746f206e6f6e2d636f6e7472616374000000604482015260640161059d565b5081611e76565b611e76838381511561203d5781518083602001fd5b806040517f08c379a000000000000000000000000000000000000000000000000000000000815260040161059d919061211f565b73ffffffffffffffffffffffffffffffffffffffff81168114610e73575f80fd5b5f602082840312156120a2575f80fd5b81356120ad81612071565b9392505050565b5f5b838110156120ce5781810151838201526020016120b6565b50505f910152565b5f81518084526120ed8160208601602086016120b4565b601f017fffffffffffffffffffffffffffffffffffffffffffffffffffffffffffffffe0169290920160200192915050565b602081525f61190c60208301846120d6565b5f8060408385031215612142575f80fd5b823561214d81612071565b946020939093013593505050565b7f4e487b71000000000000000000000000000000000000000000000000000000005f52604160045260245ffd5b604051601f82017fffffffffffffffffffffffffffffffffffffffffffffffffffffffffffffffe016810167ffffffffffffffff811182821017156121cf576121cf61215b565b604052919050565b5f67ffffffffffffffff8211156121f0576121f061215b565b50601f017fffffffffffffffffffffffffffffffffffffffffffffffffffffffffffffffe01660200190565b5f6020828403121561222c575f80fd5b813567ffffffffffffffff811115612242575f80fd5b8201601f81018413612252575f80fd5b8035612265612260826121d7565b612188565b818152856020838501011115612279575f80fd5b816020840160208301375f91810160200191909152949350505050565b600181811c908216806122aa57607f821691505b6020821081036122e1577f4e487b71000000000000000000000000000000000000000000000000000000005f52602260045260245ffd5b50919050565b5f602082840312156122f7575f80fd5b5051919050565b601f821115610b8c57805f5260205f20601f840160051c810160208510156123235750805b601f840160051c820191505b81811015612342575f815560010161232f565b5050505050565b815167ffffffffffffffff8111156123635761236361215b565b612377816123718454612296565b846122fe565b602080601f8311600181146123c9575f84156123935750858301515b7fffffffffffffffffffffffffffffffffffffffffffffffffffffffffffffffff600386901b1c1916600185901b17855561245d565b5f858152602081207fffffffffffffffffffffffffffffffffffffffffffffffffffffffffffffffe08616915b82811015612415578886015182559484019460019091019084016123f6565b508582101561245157878501517fffffffffffffffffffffffffffffffffffffffffffffffffffffffffffffffff600388901b60f8161c191681555b505060018460011b0185555b505050505050565b7f4e487b71000000000000000000000000000000000000000000000000000000005f52601160045260245ffd5b8181038181111561190f5761190f612465565b808202811582820484141761190f5761190f612465565b5f826124ef577f4e487b71000000000000000000000000000000000000000000000000000000005f52601260045260245ffd5b500490565b5f60208284031215612504575f80fd5b815180151581146120ad575f80fd5b8082018082111561190f5761190f612465565b5f805f60608486031215612538575f80fd5b8351925060208401519150604084015190509250925092565b5f60208284031215612561575f80fd5b81516120ad81612071565b5f6020828403121561257c575f80fd5b815167ffffffffffffffff811115612592575f80fd5b8201601f810184136125a2575f80fd5b80516125b0612260826121d7565b8181528560208385010111156125c4575f80fd5b6125d58260208301602086016120b4565b95945050505050565b5f82516125ef8184602087016120b4565b7f20746f6b656e73206c6f636b6572000000000000000000000000000000000000920191825250600e01919050565b5f73ffffffffffffffffffffffffffffffffffffffff808816835260a0602084015261264d60a08401886120d6565b6040840196909652939093166060820152608001525092915050565b600181815b808511156126c257817fffffffffffffffffffffffffffffffffffffffffffffffffffffffffffffffff048211156126a8576126a8612465565b808516156126b557918102915b93841c939080029061266e565b509250929050565b5f826126d85750600161190f565b816126e457505f61190f565b81600181146126fa576002811461270457612720565b600191505061190f565b60ff84111561271557612715612465565b50506001821b61190f565b5060208310610133831016604e8410600b8410161715612743575081810a61190f565b61274d8383612669565b807fffffffffffffffffffffffffffffffffffffffffffffffffffffffffffffffff0482111561277f5761277f612465565b029392505050565b5f61190c83836126ca565b5f82516127a38184602087016120b4565b919091019291505056fea2646970667358221220e4edd96e0cd877d7891ce25643749951984d2907eca4f1397703e9d6a6b4996c64736f6c63430008180033",
  "immutableReferences": {},
  "source": "// SPDX-License-Identifier: MIT\npragma solidity ^0.8.0;\n\nimport \"@openzeppelin/contracts/access/Ownable.sol\";\nimport \"@openzeppelin/contracts/security/ReentrancyGuard.sol\";\nimport \"@openzeppelin/contracts/utils/math/SafeMath.sol\";\nimport \"@openzeppelin/contracts/token/ERC20/utils/SafeERC20.sol\";\nimport \"@openzeppelin/contracts/token/ERC20/ERC20.sol\";\n\nimport \"./IUniswapV2Router02.sol\";\nimport \"./IUniswapV2Factory.sol\";\nimport \"./TokenLockerFactory.sol\";\n\ncontract IDOPool is Ownable, ReentrancyGuard {\n    using SafeMath for uint256;\n    using SafeERC20 for ERC20;\n\n    struct FinInfo {\n        uint256 tokenPrice; // one token in WEI\n        uint256 softCap;\n        uint256 hardCap;\n        uint256 minEthPayment;\n        uint256 maxEthPayment;\n        uint256 listingPrice; // one token in WEI\n        uint256 lpInterestRate;\n    }\n\n    struct Timestamps {\n        uint256 startTimestamp;\n        uint256 endTimestamp;\n        uint256 unlockTimestamp;\n    }\n\n    struct DEXInfo {\n        address router;\n        address factory;\n        address weth;\n    }\n\n    struct UserInfo {\n        uint debt;\n        uint total;\n        uint totalInvestedETH;\n    }\n\n    ERC20 public rewardToken;\n    uint256 public decimals;\n    string public metadataURL;\n\n    FinInfo public finInfo;\n    Timestamps public timestamps;\n    DEXInfo public dexInfo;\n\n    TokenLockerFactory public lockerFactory;\n\n    uint256 public totalInvestedETH;\n    uint256 public tokensForDistribution;\n    uint256 public distributedTokens;\n\n    bool public distributed = false;\n\n    mapping(address => UserInfo) public userInfo;\n\n    event TokensDebt(\n        address indexed holder,\n        uint256 ethAmount,\n        uint256 tokenAmount\n    );\n\n    event TokensWithdrawn(address indexed holder, uint256 amount);\n\n    constructor(\n        ERC20 _rewardToken,\n        FinInfo memory _finInfo,\n        Timestamps memory _timestamps,\n        DEXInfo memory _dexInfo,\n        address _lockerFactoryAddress,\n        string memory _metadataURL\n    ) {\n\n        rewardToken = _rewardToken;\n        decimals = rewardToken.decimals();\n        lockerFactory = TokenLockerFactory(_lockerFactoryAddress);\n\n        finInfo = _finInfo;\n\n        setTimestamps(_timestamps);\n\n        dexInfo = _dexInfo;\n\n        setMetadataURL(_metadataURL);\n    }\n\n    function setTimestamps(Timestamps memory _timestamps) internal {\n        require(\n            _timestamps.startTimestamp < _timestamps.endTimestamp,\n            \"Start timestamp must be less than finish timestamp\"\n        );\n        require(\n            _timestamps.endTimestamp > block.timestamp,\n            \"Finish timestamp must be more than current block\"\n        );\n\n        timestamps = _timestamps;\n    }\n\n    function setMetadataURL(string memory _metadataURL) public{\n        metadataURL = _metadataURL;\n    }\n\n    function pay() payable external {\n        require(block.timestamp >= timestamps.startTimestamp, \"Not started\");\n        require(block.timestamp < timestamps.endTimestamp, \"Ended\");\n\n        require(msg.value >= finInfo.minEthPayment, \"Less then min amount\");\n        require(msg.value <= finInfo.maxEthPayment, \"More then max amount\");\n        require(totalInvestedETH.add(msg.value) <= finInfo.hardCap, \"Overfilled\");\n\n        UserInfo storage user = userInfo[msg.sender];\n        require(user.totalInvestedETH.add(msg.value) <= finInfo.maxEthPayment, \"More then max amount\");\n\n        uint256 tokenAmount = getTokenAmount(msg.value, finInfo.tokenPrice);\n\n        totalInvestedETH = totalInvestedETH.add(msg.value);\n        tokensForDistribution = tokensForDistribution.add(tokenAmount);\n        user.totalInvestedETH = user.totalInvestedETH.add(msg.value);\n        user.total = user.total.add(tokenAmount);\n        user.debt = user.debt.add(tokenAmount);\n\n        emit TokensDebt(msg.sender, msg.value, tokenAmount);\n    }\n\n    function refund() external {\n        require(block.timestamp > timestamps.endTimestamp, \"The IDO pool has not ended.\");\n        require(totalInvestedETH < finInfo.softCap, \"The IDO pool has reach soft cap.\");\n\n        UserInfo storage user = userInfo[msg.sender];\n\n        uint256 _amount = user.totalInvestedETH;\n        require(_amount > 0 , \"You have no investment.\");\n\n        user.debt = 0;\n        user.totalInvestedETH = 0;\n        user.total = 0;\n\n        (bool success, ) = msg.sender.call{value: _amount}(\"\");\n        require(success, \"Transfer failed.\");\n\n    }\n\n    /// @dev Allows to claim tokens for the specific user.\n    /// @param _user Token receiver.\n    function claimFor(address _user) external {\n        proccessClaim(_user);\n    }\n\n    /// @dev Allows to claim tokens for themselves.\n    function claim() external {\n        proccessClaim(msg.sender);\n    }\n\n    /// @dev Proccess the claim.\n    /// @param _receiver Token receiver.\n    function proccessClaim(\n        address _receiver\n    ) internal nonReentrant{\n        require(block.timestamp > timestamps.endTimestamp, \"The IDO pool has not ended.\");\n        require(totalInvestedETH >= finInfo.softCap, \"The IDO pool did not reach soft cap.\");\n\n        UserInfo storage user = userInfo[_receiver];\n\n        uint256 _amount = user.debt;\n        require(_amount > 0 , \"You do not have debt tokens.\");\n\n        user.debt = 0;\n        distributedTokens = distributedTokens.add(_amount);\n        rewardToken.safeTransfer(_receiver, _amount);\n        emit TokensWithdrawn(_receiver,_amount);\n    }\n\n    function withdrawETH() external payable onlyOwner {\n        require(block.timestamp > timestamps.endTimestamp, \"The IDO pool has not ended.\");\n        require(totalInvestedETH >= finInfo.softCap, \"The IDO pool did not reach soft cap.\");\n        require(!distributed, \"Already distributed.\");\n\n        // This forwards all available gas. Be sure to check the return value!\n        uint256 balance = address(this).balance;\n\n        if ( finInfo.lpInterestRate > 0 && finInfo.listingPrice > 0 ) {\n            // if TokenLockerFactory has fee we should provide there fee by msg.value and sub it from balance for correct execution\n            balance -= msg.value;\n            uint256 ethForLP = (balance * finInfo.lpInterestRate)/100;\n            uint256 ethWithdraw = balance - ethForLP;\n\n            uint256 tokenAmount = getTokenAmount(ethForLP, finInfo.listingPrice);\n\n            // Add Liquidity ETH\n            IUniswapV2Router02 uniswapRouter = IUniswapV2Router02(dexInfo.router);\n            rewardToken.approve(address(uniswapRouter), tokenAmount);\n            (,, uint liquidity) = uniswapRouter.addLiquidityETH{value: ethForLP}(\n                address(rewardToken),\n                tokenAmount,\n                0, // slippage is unavoidable\n                0, // slippage is unavoidable\n                address(this),\n                block.timestamp + 360\n            );\n\n            // Lock LP Tokens\n            (address lpTokenAddress) = IUniswapV2Factory(dexInfo.factory).getPair(address(rewardToken), dexInfo.weth);\n\n            ERC20 lpToken = ERC20(lpTokenAddress);\n\n            if (timestamps.unlockTimestamp > block.timestamp) {\n                lpToken.approve(address(lockerFactory), liquidity);\n                lockerFactory.createLocker{value: msg.value}(\n                    lpToken,\n                    string.concat(lpToken.symbol(), \" tokens locker\"),\n                    liquidity, msg.sender, timestamps.unlockTimestamp\n                );\n            } else {\n                lpToken.transfer(msg.sender, liquidity);\n                // return msg.value along with eth to output if someone sent it wrong\n                ethWithdraw += msg.value;\n            }\n\n            // Withdraw rest ETH\n            (bool success, ) = msg.sender.call{value: ethWithdraw}(\"\");\n            require(success, \"Transfer failed.\");\n        } else {\n            (bool success, ) = msg.sender.call{value: balance}(\"\");\n            require(success, \"Transfer failed.\");\n        }\n\n        distributed = true;\n    }\n\n     function withdrawNotSoldTokens() external onlyOwner {\n        require(distributed, \"Withdraw allowed after distributed.\");\n\n        uint256 balance = getNotSoldToken();\n        require(balance > 0, \"The IDO pool has not unsold tokens.\");\n        rewardToken.safeTransfer(msg.sender, balance);\n    }\n\n    function getNotSoldToken() public view returns(uint256){\n        uint256 balance = rewardToken.balanceOf(address(this));\n        return balance.add(distributedTokens).sub(tokensForDistribution);\n    }\n\n    function refundTokens() external onlyOwner {\n        require(block.timestamp > timestamps.endTimestamp, \"The IDO pool has not ended.\");\n        require(totalInvestedETH < finInfo.softCap, \"The IDO pool has reach soft cap.\");\n\n        uint256 balance = rewardToken.balanceOf(address(this));\n        require(balance > 0, \"The IDO pool has not refund tokens.\");\n        rewardToken.safeTransfer(msg.sender, balance);\n    }\n\n    function getTokenAmount(uint256 ethAmount, uint256 oneTokenInWei)\n        internal\n        view\n        returns (uint256)\n    {\n        return (ethAmount / oneTokenInWei) * 10**decimals;\n    }\n\n    /**\n     * @notice It allows the owner to recover wrong tokens sent to the contract\n     * @param _tokenAddress: the address of the token to withdraw with the exception of rewardToken\n     * @param _tokenAmount: the number of token amount to withdraw\n     * @dev Only callable by owner.\n     */\n    function recoverWrongTokens(address _tokenAddress, uint256 _tokenAmount) external onlyOwner {\n        require(_tokenAddress != address(rewardToken));\n        ERC20(_tokenAddress).safeTransfer(address(msg.sender), _tokenAmount);\n    }\n}",
  "sourcePath": "/Users/rectinajh/src/launchpad/contracts/IDOPool.sol",
  "compiler": {
    "name": "solc",
    "version": "0.8.24+commit.e11b9ed9.Emscripten.clang"
  },
  "schemaVersion": "3.4.16",
  "updatedAt": "2024-03-05T17:48:36.399Z",
  "devdoc": {
    "kind": "dev",
    "methods": {
      "claim()": {
        "details": "Allows to claim tokens for themselves."
      },
      "claimFor(address)": {
        "details": "Allows to claim tokens for the specific user.",
        "params": {
          "_user": "Token receiver."
        }
      },
      "owner()": {
        "details": "Returns the address of the current owner."
      },
      "recoverWrongTokens(address,uint256)": {
        "details": "Only callable by owner.",
        "params": {
          "_tokenAddress": ": the address of the token to withdraw with the exception of rewardToken",
          "_tokenAmount": ": the number of token amount to withdraw"
        }
      },
      "renounceOwnership()": {
        "details": "Leaves the contract without owner. It will not be possible to call `onlyOwner` functions anymore. Can only be called by the current owner. NOTE: Renouncing ownership will leave the contract without an owner, thereby removing any functionality that is only available to the owner."
      },
      "transferOwnership(address)": {
        "details": "Transfers ownership of the contract to a new account (`newOwner`). Can only be called by the current owner."
      }
    },
    "version": 1
  },
  "userdoc": {
    "kind": "user",
    "methods": {
      "recoverWrongTokens(address,uint256)": {
        "notice": "It allows the owner to recover wrong tokens sent to the contract"
      }
    },
    "version": 1
  }
}