{
  "contractName": "TokenLockerFactory",
  "abi": [
    {
      "inputs": [],
      "stateMutability": "nonpayable",
      "type": "constructor"
    },
    {
      "anonymous": false,
      "inputs": [
        {
          "indexed": false,
          "internalType": "uint256",
          "name": "lockerId",
          "type": "uint256"
        },
        {
          "indexed": true,
          "internalType": "address",
          "name": "lockerAddress",
          "type": "address"
        },
        {
          "indexed": false,
          "internalType": "address",
          "name": "tokenAddress",
          "type": "address"
        }
      ],
      "name": "LockerCreated",
      "type": "event"
    },
    {
      "anonymous": false,
      "inputs": [
        {
          "indexed": true,
          "internalType": "address",
          "name": "previousOwner",
          "type": "address"
        },
        {
          "indexed": true,
          "internalType": "address",
          "name": "newOwner",
          "type": "address"
        }
      ],
      "name": "OwnershipTransferred",
      "type": "event"
    },
    {
      "inputs": [],
      "name": "fee",
      "outputs": [
        {
          "internalType": "uint256",
          "name": "",
          "type": "uint256"
        }
      ],
      "stateMutability": "view",
      "type": "function"
    },
    {
      "inputs": [],
      "name": "lockerCount",
      "outputs": [
        {
          "internalType": "uint256",
          "name": "",
          "type": "uint256"
        }
      ],
      "stateMutability": "view",
      "type": "function"
    },
    {
      "inputs": [],
      "name": "owner",
      "outputs": [
        {
          "internalType": "address",
          "name": "",
          "type": "address"
        }
      ],
      "stateMutability": "view",
      "type": "function"
    },
    {
      "inputs": [],
      "name": "renounceOwnership",
      "outputs": [],
      "stateMutability": "nonpayable",
      "type": "function"
    },
    {
      "inputs": [
        {
          "internalType": "address",
          "name": "newOwner",
          "type": "address"
        }
      ],
      "name": "transferOwnership",
      "outputs": [],
      "stateMutability": "nonpayable",
      "type": "function"
    },
    {
      "inputs": [
        {
          "internalType": "contract ERC20",
          "name": "_tokenAddress",
          "type": "address"
        },
        {
          "internalType": "string",
          "name": "_name",
          "type": "string"
        },
        {
          "internalType": "uint256",
          "name": "_lockAmount",
          "type": "uint256"
        },
        {
          "internalType": "address",
          "name": "_withdrawer",
          "type": "address"
        },
        {
          "internalType": "uint256",
          "name": "_withdrawTime",
          "type": "uint256"
        }
      ],
      "name": "createLocker",
      "outputs": [
        {
          "internalType": "address",
          "name": "",
          "type": "address"
        }
      ],
      "stateMutability": "payable",
      "type": "function"
    },
    {
      "inputs": [],
      "name": "withdrawFee",
      "outputs": [],
      "stateMutability": "nonpayable",
      "type": "function"
    },
    {
      "inputs": [
        {
          "internalType": "uint256",
          "name": "amount",
          "type": "uint256"
        }
      ],
      "name": "setFee",
      "outputs": [],
      "stateMutability": "nonpayable",
      "type": "function"
    }
  ],
  "bytecode": "0x60806040525f6001555f600255348015610017575f80fd5b5061002133610026565b610075565b5f80546001600160a01b038381166001600160a01b0319831681178455604051919092169283917f8be0079c531659141344cd1fd0a4f28419497f9722a3daafe3b4186f6b6457e09190a35050565b611bd0806100825f395ff3fe60806040526004361062000083575f3560e01c8063ccd96eb61162000052578063ccd96eb61462000130578063ddca3f431462000156578063e941fa78146200016d578063f2fde38b1462000184575f80fd5b806303f3dbac146200008757806369fe0e2d14620000c8578063715018a614620000ee5780638da5cb5b1462000105575b5f80fd5b6200009e6200009836600462000a46565b620001a8565b60405173ffffffffffffffffffffffffffffffffffffffff90911681526020015b60405180910390f35b348015620000d4575f80fd5b50620000ec620000e636600462000b50565b62000371565b005b348015620000fa575f80fd5b50620000ec62000380565b34801562000111575f80fd5b505f5473ffffffffffffffffffffffffffffffffffffffff166200009e565b3480156200013c575f80fd5b506200014760015481565b604051908152602001620000bf565b34801562000162575f80fd5b506200014760025481565b34801562000179575f80fd5b50620000ec62000397565b34801562000190575f80fd5b50620000ec620001a236600462000b68565b62000457565b5f60025434146200021a576040517f08c379a000000000000000000000000000000000000000000000000000000000815260206004820152601660248201527f46656520616d6f756e742069732072657175697265640000000000000000000060448201526064015b60405180910390fd5b5f868685856040516200022d90620009d7565b6200023c949392919062000bfc565b604051809103905ff08015801562000256573d5f803e3d5ffd5b506040517ff2fde38b00000000000000000000000000000000000000000000000000000000815233600482015290915073ffffffffffffffffffffffffffffffffffffffff82169063f2fde38b906024015f604051808303815f87803b158015620002bf575f80fd5b505af1158015620002d2573d5f803e3d5ffd5b50620002fb9250505073ffffffffffffffffffffffffffffffffffffffff881633838862000511565b6001546040805191825273ffffffffffffffffffffffffffffffffffffffff89811660208401528316917f4fd7b129e67605fe15d5e55ba0e969876d1549f11dc6aa106a702d51b27f5f4d910160405180910390a260018054905f620003618362000c3f565b9091555090979650505050505050565b6200037b620005ae565b600255565b6200038a620005ae565b620003955f62000630565b565b620003a1620005ae565b6040515f90339047908381818185875af1925050503d805f8114620003e2576040519150601f19603f3d011682016040523d82523d5f602084013e620003e7565b606091505b505090508062000454576040517f08c379a000000000000000000000000000000000000000000000000000000000815260206004820152601060248201527f5472616e73666572206661696c65642e00000000000000000000000000000000604482015260640162000211565b50565b62000461620005ae565b73ffffffffffffffffffffffffffffffffffffffff811662000506576040517f08c379a000000000000000000000000000000000000000000000000000000000815260206004820152602660248201527f4f776e61626c653a206e6577206f776e657220697320746865207a65726f206160448201527f6464726573730000000000000000000000000000000000000000000000000000606482015260840162000211565b620004548162000630565b6040805173ffffffffffffffffffffffffffffffffffffffff85811660248301528416604482015260648082018490528251808303909101815260849091019091526020810180517bffffffffffffffffffffffffffffffffffffffffffffffffffffffff167f23b872dd00000000000000000000000000000000000000000000000000000000179052620005a8908590620006a4565b50505050565b5f5473ffffffffffffffffffffffffffffffffffffffff16331462000395576040517f08c379a000000000000000000000000000000000000000000000000000000000815260206004820181905260248201527f4f776e61626c653a2063616c6c6572206973206e6f7420746865206f776e6572604482015260640162000211565b5f805473ffffffffffffffffffffffffffffffffffffffff8381167fffffffffffffffffffffffff0000000000000000000000000000000000000000831681178455604051919092169283917f8be0079c531659141344cd1fd0a4f28419497f9722a3daafe3b4186f6b6457e09190a35050565b5f62000707826040518060400160405280602081526020017f5361666545524332303a206c6f772d6c6576656c2063616c6c206661696c65648152508573ffffffffffffffffffffffffffffffffffffffff16620007bb9092919063ffffffff16565b805190915015620007b6578080602001905181019062000728919062000c9c565b620007b6576040517f08c379a000000000000000000000000000000000000000000000000000000000815260206004820152602a60248201527f5361666545524332303a204552433230206f7065726174696f6e20646964206e60448201527f6f74207375636365656400000000000000000000000000000000000000000000606482015260840162000211565b505050565b6060620007cb84845f85620007d3565b949350505050565b60608247101562000867576040517f08c379a000000000000000000000000000000000000000000000000000000000815260206004820152602660248201527f416464726573733a20696e73756666696369656e742062616c616e636520666f60448201527f722063616c6c0000000000000000000000000000000000000000000000000000606482015260840162000211565b5f808673ffffffffffffffffffffffffffffffffffffffff16858760405162000891919062000cbd565b5f6040518083038185875af1925050503d805f8114620008cd576040519150601f19603f3d011682016040523d82523d5f602084013e620008d2565b606091505b5091509150620008e587838387620008f0565b979650505050505050565b606083156200098a5782515f03620009825773ffffffffffffffffffffffffffffffffffffffff85163b62000982576040517f08c379a000000000000000000000000000000000000000000000000000000000815260206004820152601d60248201527f416464726573733a2063616c6c20746f206e6f6e2d636f6e7472616374000000604482015260640162000211565b5081620007cb565b620007cb8383815115620009a15781518083602001fd5b806040517f08c379a000000000000000000000000000000000000000000000000000000000815260040162000211919062000cda565b610eac8062000cef83390190565b73ffffffffffffffffffffffffffffffffffffffff8116811462000454575f80fd5b7f4e487b71000000000000000000000000000000000000000000000000000000005f52604160045260245ffd5b803562000a4181620009e5565b919050565b5f805f805f60a0868803121562000a5b575f80fd5b853562000a6881620009e5565b9450602086013567ffffffffffffffff8082111562000a85575f80fd5b818801915088601f83011262000a99575f80fd5b81358181111562000aae5762000aae62000a07565b604051601f82017fffffffffffffffffffffffffffffffffffffffffffffffffffffffffffffffe0908116603f0116810190838211818310171562000af75762000af762000a07565b816040528281528b602084870101111562000b10575f80fd5b826020860160208301375f6020848301015280985050505050506040860135925062000b3f6060870162000a34565b949793965091946080013592915050565b5f6020828403121562000b61575f80fd5b5035919050565b5f6020828403121562000b79575f80fd5b813562000b8681620009e5565b9392505050565b5f5b8381101562000ba957818101518382015260200162000b8f565b50505f910152565b5f815180845262000bca81602086016020860162000b8d565b601f017fffffffffffffffffffffffffffffffffffffffffffffffffffffffffffffffe0169290920160200192915050565b5f73ffffffffffffffffffffffffffffffffffffffff80871683526080602084015262000c2d608084018762000bb1565b94166040830152506060015292915050565b5f7fffffffffffffffffffffffffffffffffffffffffffffffffffffffffffffffff820362000c95577f4e487b71000000000000000000000000000000000000000000000000000000005f52601160045260245ffd5b5060010190565b5f6020828403121562000cad575f80fd5b8151801515811462000b86575f80fd5b5f825162000cd081846020870162000b8d565b9190910192915050565b602081525f62000b86602083018462000bb156fe608060405234801562000010575f80fd5b5060405162000eac38038062000eac833981016040819052620000339162000184565b6200003e33620000f7565b428111620000a05760405162461bcd60e51b815260206004820152602560248201527f77697468647261772074696d652073686f756c64206265206d6f7265207468616044820152646e206e6f7760d81b606482015260840160405180910390fd5b600180546001600160a01b0319166001600160a01b0386161790556004620000c984826200030b565b50600280546001600160a01b0319166001600160a01b03939093169290921790915560035550620003d79050565b5f80546001600160a01b038381166001600160a01b0319831681178455604051919092169283917f8be0079c531659141344cd1fd0a4f28419497f9722a3daafe3b4186f6b6457e09190a35050565b6001600160a01b03811681146200015b575f80fd5b50565b634e487b7160e01b5f52604160045260245ffd5b80516200017f8162000146565b919050565b5f805f806080858703121562000198575f80fd5b8451620001a58162000146565b602086810151919550906001600160401b0380821115620001c4575f80fd5b818801915088601f830112620001d8575f80fd5b815181811115620001ed57620001ed6200015e565b604051601f8201601f19908116603f011681019083821181831017156200021857620002186200015e565b816040528281528b8684870101111562000230575f80fd5b5f93505b8284101562000253578484018601518185018701529285019262000234565b5f868483010152809850505050505050620002716040860162000172565b6060959095015193969295505050565b600181811c908216806200029657607f821691505b602082108103620002b557634e487b7160e01b5f52602260045260245ffd5b50919050565b601f8211156200030657805f5260205f20601f840160051c81016020851015620002e25750805b601f840160051c820191505b8181101562000303575f8155600101620002ee565b50505b505050565b81516001600160401b038111156200032757620003276200015e565b6200033f8162000338845462000281565b84620002bb565b602080601f83116001811462000375575f84156200035d5750858301515b5f19600386901b1c1916600185901b178555620003cf565b5f85815260208120601f198616915b82811015620003a55788860151825594840194600190910190840162000384565b5085821015620003c357878501515f19600388901b60f8161c191681555b505060018460011b0185555b505050505050565b610ac780620003e55f395ff3fe608060405234801561000f575f80fd5b50600436106100b9575f3560e01c80637fc0254d11610072578063cdc1842411610058578063cdc184241461015d578063f2fde38b1461017d578063fc0c546a14610190575f80fd5b80637fc0254d146101175780638da5cb5b1461011f575f80fd5b806350baa622116100a257806350baa622146100f257806368646cf014610107578063715018a61461010f575f80fd5b806306fdde03146100bd57806345cb3dde146100db575b5f80fd5b6100c56101b0565b6040516100d2919061094f565b60405180910390f35b6100e460035481565b6040519081526020016100d2565b6101056101003660046109b9565b61023c565b005b6100e4610522565b6101056105b7565b6101056105ca565b5f5473ffffffffffffffffffffffffffffffffffffffff165b60405173ffffffffffffffffffffffffffffffffffffffff90911681526020016100d2565b6002546101389073ffffffffffffffffffffffffffffffffffffffff1681565b61010561018b3660046109d0565b6107a4565b6001546101389073ffffffffffffffffffffffffffffffffffffffff1681565b600480546101bd90610a0a565b80601f01602080910402602001604051908101604052809291908181526020018280546101e990610a0a565b80156102345780601f1061020b57610100808354040283529160200191610234565b820191905f5260205f20905b81548152906001019060200180831161021757829003601f168201915b505050505081565b6001546040517f70a0823100000000000000000000000000000000000000000000000000000000815230600482015273ffffffffffffffffffffffffffffffffffffffff909116906370a0823190602401602060405180830381865afa1580156102a8573d5f803e3d5ffd5b505050506040513d601f19601f820116820180604052508101906102cc9190610a5b565b811015610360576040517f08c379a000000000000000000000000000000000000000000000000000000000815260206004820152602160248201527f576974686472617720616d6f756e74206973206578636565642062616c616e6360448201527f650000000000000000000000000000000000000000000000000000000000000060648201526084015b60405180910390fd5b60025473ffffffffffffffffffffffffffffffffffffffff1633146103e1576040517f08c379a000000000000000000000000000000000000000000000000000000000815260206004820152601660248201527f596f7520617265206e6f742077697468647261776572000000000000000000006044820152606401610357565b600354421161044c576040517f08c379a000000000000000000000000000000000000000000000000000000000815260206004820152600c60248201527f4e6f742074696d652079657400000000000000000000000000000000000000006044820152606401610357565b6001546040517fa9059cbb0000000000000000000000000000000000000000000000000000000081523360048201526024810183905273ffffffffffffffffffffffffffffffffffffffff9091169063a9059cbb906044015b6020604051808303815f875af11580156104c1573d5f803e3d5ffd5b505050506040513d601f19601f820116820180604052508101906104e59190610a72565b5060408051428152602081018390527fa4fa6d4c08e67b66804f329195ed12feecfe9057e79e17edf30ff90f6cf37d8f910160405180910390a150565b6001546040517f70a082310000000000000000000000000000000000000000000000000000000081523060048201525f9173ffffffffffffffffffffffffffffffffffffffff16906370a0823190602401602060405180830381865afa15801561058e573d5f803e3d5ffd5b505050506040513d601f19601f820116820180604052508101906105b29190610a5b565b905090565b6105bf61085b565b6105c85f6108db565b565b60025473ffffffffffffffffffffffffffffffffffffffff16331461064b576040517f08c379a000000000000000000000000000000000000000000000000000000000815260206004820152601660248201527f596f7520617265206e6f742077697468647261776572000000000000000000006044820152606401610357565b60035442116106b6576040517f08c379a000000000000000000000000000000000000000000000000000000000815260206004820152600c60248201527f4e6f742074696d652079657400000000000000000000000000000000000000006044820152606401610357565b6001546040517f70a082310000000000000000000000000000000000000000000000000000000081523060048201525f9173ffffffffffffffffffffffffffffffffffffffff16906370a0823190602401602060405180830381865afa158015610722573d5f803e3d5ffd5b505050506040513d601f19601f820116820180604052508101906107469190610a5b565b6001546040517fa9059cbb0000000000000000000000000000000000000000000000000000000081523360048201526024810183905291925073ffffffffffffffffffffffffffffffffffffffff169063a9059cbb906044016104a5565b6107ac61085b565b73ffffffffffffffffffffffffffffffffffffffff811661084f576040517f08c379a000000000000000000000000000000000000000000000000000000000815260206004820152602660248201527f4f776e61626c653a206e6577206f776e657220697320746865207a65726f206160448201527f64647265737300000000000000000000000000000000000000000000000000006064820152608401610357565b610858816108db565b50565b5f5473ffffffffffffffffffffffffffffffffffffffff1633146105c8576040517f08c379a000000000000000000000000000000000000000000000000000000000815260206004820181905260248201527f4f776e61626c653a2063616c6c6572206973206e6f7420746865206f776e65726044820152606401610357565b5f805473ffffffffffffffffffffffffffffffffffffffff8381167fffffffffffffffffffffffff0000000000000000000000000000000000000000831681178455604051919092169283917f8be0079c531659141344cd1fd0a4f28419497f9722a3daafe3b4186f6b6457e09190a35050565b5f602080835283518060208501525f5b8181101561097b5785810183015185820160400152820161095f565b505f6040828601015260407fffffffffffffffffffffffffffffffffffffffffffffffffffffffffffffffe0601f8301168501019250505092915050565b5f602082840312156109c9575f80fd5b5035919050565b5f602082840312156109e0575f80fd5b813573ffffffffffffffffffffffffffffffffffffffff81168114610a03575f80fd5b9392505050565b600181811c90821680610a1e57607f821691505b602082108103610a55577f4e487b71000000000000000000000000000000000000000000000000000000005f52602260045260245ffd5b50919050565b5f60208284031215610a6b575f80fd5b5051919050565b5f60208284031215610a82575f80fd5b81518015158114610a03575f80fdfea2646970667358221220038f8e2b1a76d3398a913ec411e9cb0689a4ab7ff9d732275739b065db707c9664736f6c63430008180033a26469706673582212204d5905fca3a0ec4b79ae297a68cb5072c7c48324627f47c60ba7b722934f9d6564736f6c63430008180033",
  "immutableReferences": {},
  "source": "pragma solidity ^0.8.0;\n\nimport \"@openzeppelin/contracts/access/Ownable.sol\";\nimport \"@openzeppelin/contracts/security/ReentrancyGuard.sol\";\nimport \"@openzeppelin/contracts/utils/math/SafeMath.sol\";\nimport \"@openzeppelin/contracts/token/ERC20/utils/SafeERC20.sol\";\nimport \"@openzeppelin/contracts/token/ERC20/ERC20.sol\";\nimport \"./TokenLocker.sol\";\n\ncontract TokenLockerFactory is Ownable {\n    using SafeMath for uint256;\n    using SafeERC20 for ERC20;\n\n    uint256 public lockerCount = 0;\n    uint256 public fee = 0;\n\n    struct lockerInfo {\n        uint256 lockerId;\n        address tokenAddress;\n        address creator;\n        uint256 ramaining;\n        address withdrawer;\n        uint256 withdrawTime;\n    }\n\n\n    event LockerCreated(uint256 lockerId, address indexed lockerAddress, address tokenAddress);\n\n    constructor(\n    ){\n\n    }\n\n    function createLocker(\n        ERC20 _tokenAddress,\n        string memory _name,\n        uint256 _lockAmount,\n        address _withdrawer,\n        uint256 _withdrawTime\n        ) payable public returns(address){\n        require(msg.value == fee, 'Fee amount is required');\n\n        TokenLocker tokenLocker = new TokenLocker(_tokenAddress, _name, _withdrawer, _withdrawTime);\n        tokenLocker.transferOwnership(msg.sender);\n\n        _tokenAddress.safeTransferFrom(\n                msg.sender,\n                address(tokenLocker),\n                _lockAmount\n            );\n\n        emit LockerCreated(lockerCount, address(tokenLocker), address(_tokenAddress));\n        lockerCount++;\n        return address(tokenLocker);\n\n    }\n\n    function withdrawFee() public onlyOwner{\n        (bool success, ) = msg.sender.call{value: address(this).balance}(\"\");\n        require(success, \"Transfer failed.\");\n    }\n\n    function setFee(uint256 amount) public onlyOwner{\n        fee = amount;\n    }\n}",
  "sourcePath": "/Users/rectinajh/src/launchpad/contracts/TokenLockerFactory.sol",
  "compiler": {
    "name": "solc",
    "version": "0.8.24+commit.e11b9ed9.Emscripten.clang"
  },
  "schemaVersion": "3.4.16",
  "updatedAt": "2024-03-05T17:48:36.488Z",
  "devdoc": {
    "kind": "dev",
    "methods": {
      "owner()": {
        "details": "Returns the address of the current owner."
      },
      "renounceOwnership()": {
        "details": "Leaves the contract without owner. It will not be possible to call `onlyOwner` functions anymore. Can only be called by the current owner. NOTE: Renouncing ownership will leave the contract without an owner, thereby removing any functionality that is only available to the owner."
      },
      "transferOwnership(address)": {
        "details": "Transfers ownership of the contract to a new account (`newOwner`). Can only be called by the current owner."
      }
    },
    "version": 1
  },
  "userdoc": {
    "kind": "user",
    "methods": {},
    "version": 1
  }
}